{"contracts/ram3.sol":{"Complaint":{"abi":[{"inputs":[],"stateMutability":"nonpayable","type":"constructor"},{"anonymous":false,"inputs":[{"indexed":true,"internalType":"uint256","name":"id","type":"uint256"},{"indexed":false,"internalType":"address","name":"complainant","type":"address"},{"indexed":false,"internalType":"string","name":"name","type":"string"},{"indexed":false,"internalType":"string","name":"vehicleNumber","type":"string"},{"indexed":false,"internalType":"uint256","name":"timestamp","type":"uint256"},{"indexed":false,"internalType":"string","name":"location","type":"string"},{"indexed":false,"internalType":"string","name":"date","type":"string"},{"indexed":false,"internalType":"string","name":"registeredBy","type":"string"},{"indexed":false,"internalType":"string","name":"contactNumber","type":"string"},{"indexed":false,"internalType":"string","name":"licenseNumber","type":"string"},{"indexed":false,"internalType":"enum Complaint.ViolationType","name":"violationType","type":"uint8"},{"indexed":false,"internalType":"string","name":"details","type":"string"}],"name":"ViolationReported","type":"event"},{"anonymous":false,"inputs":[{"indexed":true,"internalType":"uint256","name":"id","type":"uint256"}],"name":"ViolationResolved","type":"event"},{"inputs":[],"name":"getAllComplaints","outputs":[{"components":[{"internalType":"address","name":"complainant","type":"address"},{"internalType":"string","name":"name","type":"string"},{"internalType":"string","name":"vehicleNumber","type":"string"},{"internalType":"uint256","name":"timestamp","type":"uint256"},{"internalType":"string","name":"location","type":"string"},{"internalType":"string","name":"date","type":"string"},{"internalType":"string","name":"registeredBy","type":"string"},{"internalType":"string","name":"contactNumber","type":"string"},{"internalType":"string","name":"licenseNumber","type":"string"},{"internalType":"enum Complaint.ViolationType","name":"violationType","type":"uint8"},{"internalType":"bool","name":"resolved","type":"bool"},{"internalType":"string","name":"details","type":"string"}],"internalType":"struct Complaint.Violation[]","name":"","type":"tuple[]"}],"stateMutability":"view","type":"function"},{"inputs":[],"name":"getAllViolationIds","outputs":[{"internalType":"uint256[]","name":"","type":"uint256[]"}],"stateMutability":"view","type":"function"},{"inputs":[{"internalType":"uint256","name":"_id","type":"uint256"}],"name":"getViolationDetails","outputs":[{"internalType":"address","name":"","type":"address"},{"internalType":"string","name":"","type":"string"},{"internalType":"string","name":"","type":"string"},{"internalType":"string","name":"","type":"string"},{"internalType":"uint256","name":"","type":"uint256"},{"internalType":"string","name":"","type":"string"},{"internalType":"string","name":"","type":"string"},{"internalType":"string","name":"","type":"string"},{"internalType":"string","name":"","type":"string"},{"internalType":"enum Complaint.ViolationType","name":"","type":"uint8"},{"internalType":"bool","name":"","type":"bool"},{"internalType":"string","name":"","type":"string"}],"stateMutability":"view","type":"function"},{"inputs":[{"internalType":"string","name":"_name","type":"string"},{"internalType":"string","name":"_vehicleNumber","type":"string"},{"internalType":"string","name":"_location","type":"string"},{"internalType":"string","name":"_date","type":"string"},{"internalType":"string","name":"_registeredBy","type":"string"},{"internalType":"string","name":"_contactNumber","type":"string"},{"internalType":"string","name":"_licenseNumber","type":"string"},{"internalType":"uint8","name":"_violationType","type":"uint8"},{"internalType":"string","name":"_details","type":"string"}],"name":"reportViolation","outputs":[],"stateMutability":"nonpayable","type":"function"},{"inputs":[{"internalType":"uint256","name":"_id","type":"uint256"}],"name":"resolveViolation","outputs":[],"stateMutability":"nonpayable","type":"function"},{"inputs":[],"name":"violationCount","outputs":[{"internalType":"uint256","name":"","type":"uint256"}],"stateMutability":"view","type":"function"},{"inputs":[{"internalType":"uint256","name":"","type":"uint256"}],"name":"violations","outputs":[{"internalType":"address","name":"complainant","type":"address"},{"internalType":"string","name":"name","type":"string"},{"internalType":"string","name":"vehicleNumber","type":"string"},{"internalType":"uint256","name":"timestamp","type":"uint256"},{"internalType":"string","name":"location","type":"string"},{"internalType":"string","name":"date","type":"string"},{"internalType":"string","name":"registeredBy","type":"string"},{"internalType":"string","name":"contactNumber","type":"string"},{"internalType":"string","name":"licenseNumber","type":"string"},{"internalType":"enum Complaint.ViolationType","name":"violationType","type":"uint8"},{"internalType":"bool","name":"resolved","type":"bool"},{"internalType":"string","name":"details","type":"string"}],"stateMutability":"view","type":"function"}],"evm":{"bytecode":{"linkReferences":{},"object":"608060405234801561001057600080fd5b506000600181905550612965806100286000396000f3fe608060405234801561001057600080fd5b506004361061007d5760003560e01c8063a20a2c001161005b578063a20a2c00146100f9578063ab5961ee14610115578063b995bb9514610131578063f24759951461016c5761007d565b80630a86a399146100825780630dac9539146100bd57806352388941146100db575b600080fd5b61009c60048036038101906100979190611898565b61018a565b6040516100b49c9b9a99989796959493929190611a37565b60405180910390f35b6100c56107b3565b6040516100d29190611da6565b60405180910390f35b6100e3610dc8565b6040516100f09190611dc8565b60405180910390f35b610113600480360381019061010e9190611898565b610dce565b005b61012f600480360381019061012a9190611f51565b610f77565b005b61014b60048036038101906101469190611898565b611241565b6040516101639c9b9a999897969594939291906120fb565b60405180910390f35b61017461171b565b604051610181919061229c565b60405180910390f35b60006060806060600060608060608060008060606001548d11156101e3576040517f08c379a00000000000000000000000000000000000000000000000000000000081526004016101da9061230a565b60405180910390fd5b60008060008f8152602001908152602001600020604051806101800160405290816000820160009054906101000a900473ffffffffffffffffffffffffffffffffffffffff1673ffffffffffffffffffffffffffffffffffffffff1673ffffffffffffffffffffffffffffffffffffffff16815260200160018201805461026990612359565b80601f016020809104026020016040519081016040528092919081815260200182805461029590612359565b80156102e25780601f106102b7576101008083540402835291602001916102e2565b820191906000526020600020905b8154815290600101906020018083116102c557829003601f168201915b505050505081526020016002820180546102fb90612359565b80601f016020809104026020016040519081016040528092919081815260200182805461032790612359565b80156103745780601f1061034957610100808354040283529160200191610374565b820191906000526020600020905b81548152906001019060200180831161035757829003601f168201915b505050505081526020016003820154815260200160048201805461039790612359565b80601f01602080910402602001604051908101604052809291908181526020018280546103c390612359565b80156104105780601f106103e557610100808354040283529160200191610410565b820191906000526020600020905b8154815290600101906020018083116103f357829003601f168201915b5050505050815260200160058201805461042990612359565b80601f016020809104026020016040519081016040528092919081815260200182805461045590612359565b80156104a25780601f10610477576101008083540402835291602001916104a2565b820191906000526020600020905b81548152906001019060200180831161048557829003601f168201915b505050505081526020016006820180546104bb90612359565b80601f01602080910402602001604051908101604052809291908181526020018280546104e790612359565b80156105345780601f1061050957610100808354040283529160200191610534565b820191906000526020600020905b81548152906001019060200180831161051757829003601f168201915b5050505050815260200160078201805461054d90612359565b80601f016020809104026020016040519081016040528092919081815260200182805461057990612359565b80156105c65780601f1061059b576101008083540402835291602001916105c6565b820191906000526020600020905b8154815290600101906020018083116105a957829003601f168201915b505050505081526020016008820180546105df90612359565b80601f016020809104026020016040519081016040528092919081815260200182805461060b90612359565b80156106585780601f1061062d57610100808354040283529160200191610658565b820191906000526020600020905b81548152906001019060200180831161063b57829003601f168201915b505050505081526020016009820160009054906101000a900460ff166003811115610686576106856119a5565b5b6003811115610698576106976119a5565b5b81526020016009820160019054906101000a900460ff16151515158152602001600a820180546106c790612359565b80601f01602080910402602001604051908101604052809291908181526020018280546106f390612359565b80156107405780601f1061071557610100808354040283529160200191610740565b820191906000526020600020905b81548152906001019060200180831161072357829003601f168201915b5050505050815250509050806000015181602001518260400151836080015184606001518560a001518660c001518760e001518861010001518961012001518a61014001518b61016001519c509c509c509c509c509c509c509c509c509c509c509c505091939597999b5091939597999b565b6060600060015467ffffffffffffffff8111156107d3576107d2611ded565b5b60405190808252806020026020018201604052801561080c57816020015b6107f96117c3565b8152602001906001900390816107f15790505b5090506000600190505b6001548111610dc057600080828152602001908152602001600020604051806101800160405290816000820160009054906101000a900473ffffffffffffffffffffffffffffffffffffffff1673ffffffffffffffffffffffffffffffffffffffff1673ffffffffffffffffffffffffffffffffffffffff1681526020016001820180546108a390612359565b80601f01602080910402602001604051908101604052809291908181526020018280546108cf90612359565b801561091c5780601f106108f15761010080835404028352916020019161091c565b820191906000526020600020905b8154815290600101906020018083116108ff57829003601f168201915b5050505050815260200160028201805461093590612359565b80601f016020809104026020016040519081016040528092919081815260200182805461096190612359565b80156109ae5780601f10610983576101008083540402835291602001916109ae565b820191906000526020600020905b81548152906001019060200180831161099157829003601f168201915b50505050508152602001600382015481526020016004820180546109d190612359565b80601f01602080910402602001604051908101604052809291908181526020018280546109fd90612359565b8015610a4a5780601f10610a1f57610100808354040283529160200191610a4a565b820191906000526020600020905b815481529060010190602001808311610a2d57829003601f168201915b50505050508152602001600582018054610a6390612359565b80601f0160208091040260200160405190810160405280929190818152602001828054610a8f90612359565b8015610adc5780601f10610ab157610100808354040283529160200191610adc565b820191906000526020600020905b815481529060010190602001808311610abf57829003601f168201915b50505050508152602001600682018054610af590612359565b80601f0160208091040260200160405190810160405280929190818152602001828054610b2190612359565b8015610b6e5780601f10610b4357610100808354040283529160200191610b6e565b820191906000526020600020905b815481529060010190602001808311610b5157829003601f168201915b50505050508152602001600782018054610b8790612359565b80601f0160208091040260200160405190810160405280929190818152602001828054610bb390612359565b8015610c005780601f10610bd557610100808354040283529160200191610c00565b820191906000526020600020905b815481529060010190602001808311610be357829003601f168201915b50505050508152602001600882018054610c1990612359565b80601f0160208091040260200160405190810160405280929190818152602001828054610c4590612359565b8015610c925780601f10610c6757610100808354040283529160200191610c92565b820191906000526020600020905b815481529060010190602001808311610c7557829003601f168201915b505050505081526020016009820160009054906101000a900460ff166003811115610cc057610cbf6119a5565b5b6003811115610cd257610cd16119a5565b5b81526020016009820160019054906101000a900460ff16151515158152602001600a82018054610d0190612359565b80601f0160208091040260200160405190810160405280929190818152602001828054610d2d90612359565b8015610d7a5780601f10610d4f57610100808354040283529160200191610d7a565b820191906000526020600020905b815481529060010190602001808311610d5d57829003601f168201915b50505050508152505082600183610d9191906123b9565b81518110610da257610da16123ed565b5b60200260200101819052508080610db89061241c565b915050610816565b508091505090565b60015481565b600154811115610e13576040517f08c379a0000000000000000000000000000000000000000000000000000000008152600401610e0a9061230a565b60405180910390fd5b3373ffffffffffffffffffffffffffffffffffffffff1660008083815260200190815260200160002060000160009054906101000a900473ffffffffffffffffffffffffffffffffffffffff1673ffffffffffffffffffffffffffffffffffffffff1614610eb6576040517f08c379a0000000000000000000000000000000000000000000000000000000008152600401610ead906124d6565b60405180910390fd5b60008082815260200190815260200160002060090160019054906101000a900460ff1615610f19576040517f08c379a0000000000000000000000000000000000000000000000000000000008152600401610f1090612542565b60405180910390fd5b600160008083815260200190815260200160002060090160016101000a81548160ff021916908315150217905550807fd3c146e35d5f36e786effc7299debf0fa3c1f6785b0636ad5e18b935539ca4bb60405160405180910390a250565b60048260ff1610610fbd576040517f08c379a0000000000000000000000000000000000000000000000000000000008152600401610fb4906125ae565b60405180910390fd5b60016000815480929190610fd09061241c565b91905055506040518061018001604052803373ffffffffffffffffffffffffffffffffffffffff1681526020018a81526020018981526020014281526020018881526020018781526020018681526020018581526020018481526020018360ff166003811115611043576110426119a5565b5b6003811115611055576110546119a5565b5b815260200160001515815260200182815250600080600154815260200190815260200160002060008201518160000160006101000a81548173ffffffffffffffffffffffffffffffffffffffff021916908373ffffffffffffffffffffffffffffffffffffffff16021790555060208201518160010190816110d7919061277a565b5060408201518160020190816110ed919061277a565b5060608201518160030155608082015181600401908161110d919061277a565b5060a0820151816005019081611123919061277a565b5060c0820151816006019081611139919061277a565b5060e082015181600701908161114f919061277a565b50610100820151816008019081611166919061277a565b506101208201518160090160006101000a81548160ff02191690836003811115611193576111926119a5565b5b02179055506101408201518160090160016101000a81548160ff02191690831515021790555061016082015181600a0190816111cf919061277a565b509050506001547f3fcc12d6e16901b654c0f793a064cf0a289eb46683e2f65d5630cf1feff5722c338b8b428c8c8c8c8c8c60ff166003811115611216576112156119a5565b5b8c60405161122e9b9a9998979695949392919061284c565b60405180910390a2505050505050505050565b60006020528060005260406000206000915090508060000160009054906101000a900473ffffffffffffffffffffffffffffffffffffffff169080600101805461128a90612359565b80601f01602080910402602001604051908101604052809291908181526020018280546112b690612359565b80156113035780601f106112d857610100808354040283529160200191611303565b820191906000526020600020905b8154815290600101906020018083116112e657829003601f168201915b50505050509080600201805461131890612359565b80601f016020809104026020016040519081016040528092919081815260200182805461134490612359565b80156113915780601f1061136657610100808354040283529160200191611391565b820191906000526020600020905b81548152906001019060200180831161137457829003601f168201915b5050505050908060030154908060040180546113ac90612359565b80601f01602080910402602001604051908101604052809291908181526020018280546113d890612359565b80156114255780601f106113fa57610100808354040283529160200191611425565b820191906000526020600020905b81548152906001019060200180831161140857829003601f168201915b50505050509080600501805461143a90612359565b80601f016020809104026020016040519081016040528092919081815260200182805461146690612359565b80156114b35780601f10611488576101008083540402835291602001916114b3565b820191906000526020600020905b81548152906001019060200180831161149657829003601f168201915b5050505050908060060180546114c890612359565b80601f01602080910402602001604051908101604052809291908181526020018280546114f490612359565b80156115415780601f1061151657610100808354040283529160200191611541565b820191906000526020600020905b81548152906001019060200180831161152457829003601f168201915b50505050509080600701805461155690612359565b80601f016020809104026020016040519081016040528092919081815260200182805461158290612359565b80156115cf5780601f106115a4576101008083540402835291602001916115cf565b820191906000526020600020905b8154815290600101906020018083116115b257829003601f168201915b5050505050908060080180546115e490612359565b80601f016020809104026020016040519081016040528092919081815260200182805461161090612359565b801561165d5780601f106116325761010080835404028352916020019161165d565b820191906000526020600020905b81548152906001019060200180831161164057829003601f168201915b5050505050908060090160009054906101000a900460ff16908060090160019054906101000a900460ff169080600a01805461169890612359565b80601f01602080910402602001604051908101604052809291908181526020018280546116c490612359565b80156117115780601f106116e657610100808354040283529160200191611711565b820191906000526020600020905b8154815290600101906020018083116116f457829003601f168201915b505050505090508c565b6060600060015467ffffffffffffffff81111561173b5761173a611ded565b5b6040519080825280602002602001820160405280156117695781602001602082028036833780820191505090505b5090506000600190505b60015481116117bb57808260018361178b91906123b9565b8151811061179c5761179b6123ed565b5b60200260200101818152505080806117b39061241c565b915050611773565b508091505090565b604051806101800160405280600073ffffffffffffffffffffffffffffffffffffffff168152602001606081526020016060815260200160008152602001606081526020016060815260200160608152602001606081526020016060815260200160006003811115611838576118376119a5565b5b8152602001600015158152602001606081525090565b6000604051905090565b600080fd5b600080fd5b6000819050919050565b61187581611862565b811461188057600080fd5b50565b6000813590506118928161186c565b92915050565b6000602082840312156118ae576118ad611858565b5b60006118bc84828501611883565b91505092915050565b600073ffffffffffffffffffffffffffffffffffffffff82169050919050565b60006118f0826118c5565b9050919050565b611900816118e5565b82525050565b600081519050919050565b600082825260208201905092915050565b60005b83811015611940578082015181840152602081019050611925565b60008484015250505050565b6000601f19601f8301169050919050565b600061196882611906565b6119728185611911565b9350611982818560208601611922565b61198b8161194c565b840191505092915050565b61199f81611862565b82525050565b7f4e487b7100000000000000000000000000000000000000000000000000000000600052602160045260246000fd5b600481106119e5576119e46119a5565b5b50565b60008190506119f6826119d4565b919050565b6000611a06826119e8565b9050919050565b611a16816119fb565b82525050565b60008115159050919050565b611a3181611a1c565b82525050565b600061018082019050611a4d600083018f6118f7565b8181036020830152611a5f818e61195d565b90508181036040830152611a73818d61195d565b90508181036060830152611a87818c61195d565b9050611a96608083018b611996565b81810360a0830152611aa8818a61195d565b905081810360c0830152611abc818961195d565b905081810360e0830152611ad0818861195d565b9050818103610100830152611ae5818761195d565b9050611af5610120830186611a0d565b611b03610140830185611a28565b818103610160830152611b16818461195d565b90509d9c50505050505050505050505050565b600081519050919050565b600082825260208201905092915050565b6000819050602082019050919050565b611b5e816118e5565b82525050565b600082825260208201905092915050565b6000611b8082611906565b611b8a8185611b64565b9350611b9a818560208601611922565b611ba38161194c565b840191505092915050565b611bb781611862565b82525050565b611bc6816119fb565b82525050565b611bd581611a1c565b82525050565b600061018083016000830151611bf46000860182611b55565b5060208301518482036020860152611c0c8282611b75565b91505060408301518482036040860152611c268282611b75565b9150506060830151611c3b6060860182611bae565b5060808301518482036080860152611c538282611b75565b91505060a083015184820360a0860152611c6d8282611b75565b91505060c083015184820360c0860152611c878282611b75565b91505060e083015184820360e0860152611ca18282611b75565b915050610100830151848203610100860152611cbd8282611b75565b915050610120830151611cd4610120860182611bbd565b50610140830151611ce9610140860182611bcc565b50610160830151848203610160860152611d038282611b75565b9150508091505092915050565b6000611d1c8383611bdb565b905092915050565b6000602082019050919050565b6000611d3c82611b29565b611d468185611b34565b935083602082028501611d5885611b45565b8060005b85811015611d945784840389528151611d758582611d10565b9450611d8083611d24565b925060208a01995050600181019050611d5c565b50829750879550505050505092915050565b60006020820190508181036000830152611dc08184611d31565b905092915050565b6000602082019050611ddd6000830184611996565b92915050565b600080fd5b600080fd5b7f4e487b7100000000000000000000000000000000000000000000000000000000600052604160045260246000fd5b611e258261194c565b810181811067ffffffffffffffff82111715611e4457611e43611ded565b5b80604052505050565b6000611e5761184e565b9050611e638282611e1c565b919050565b600067ffffffffffffffff821115611e8357611e82611ded565b5b611e8c8261194c565b9050602081019050919050565b82818337600083830152505050565b6000611ebb611eb684611e68565b611e4d565b905082815260208101848484011115611ed757611ed6611de8565b5b611ee2848285611e99565b509392505050565b600082601f830112611eff57611efe611de3565b5b8135611f0f848260208601611ea8565b91505092915050565b600060ff82169050919050565b611f2e81611f18565b8114611f3957600080fd5b50565b600081359050611f4b81611f25565b92915050565b60008060008060008060008060006101208a8c031215611f7457611f73611858565b5b60008a013567ffffffffffffffff811115611f9257611f9161185d565b5b611f9e8c828d01611eea565b99505060208a013567ffffffffffffffff811115611fbf57611fbe61185d565b5b611fcb8c828d01611eea565b98505060408a013567ffffffffffffffff811115611fec57611feb61185d565b5b611ff88c828d01611eea565b97505060608a013567ffffffffffffffff8111156120195761201861185d565b5b6120258c828d01611eea565b96505060808a013567ffffffffffffffff8111156120465761204561185d565b5b6120528c828d01611eea565b95505060a08a013567ffffffffffffffff8111156120735761207261185d565b5b61207f8c828d01611eea565b94505060c08a013567ffffffffffffffff8111156120a05761209f61185d565b5b6120ac8c828d01611eea565b93505060e06120bd8c828d01611f3c565b9250506101008a013567ffffffffffffffff8111156120df576120de61185d565b5b6120eb8c828d01611eea565b9150509295985092959850929598565b600061018082019050612111600083018f6118f7565b8181036020830152612123818e61195d565b90508181036040830152612137818d61195d565b9050612146606083018c611996565b8181036080830152612158818b61195d565b905081810360a083015261216c818a61195d565b905081810360c0830152612180818961195d565b905081810360e0830152612194818861195d565b90508181036101008301526121a9818761195d565b90506121b9610120830186611a0d565b6121c7610140830185611a28565b8181036101608301526121da818461195d565b90509d9c50505050505050505050505050565b600081519050919050565b600082825260208201905092915050565b6000819050602082019050919050565b60006122258383611bae565b60208301905092915050565b6000602082019050919050565b6000612249826121ed565b61225381856121f8565b935061225e83612209565b8060005b8381101561228f5781516122768882612219565b975061228183612231565b925050600181019050612262565b5085935050505092915050565b600060208201905081810360008301526122b6818461223e565b905092915050565b7f56696f6c6174696f6e20494420646f6573206e6f742065786973740000000000600082015250565b60006122f4601b83611911565b91506122ff826122be565b602082019050919050565b60006020820190508181036000830152612323816122e7565b9050919050565b7f4e487b7100000000000000000000000000000000000000000000000000000000600052602260045260246000fd5b6000600282049050600182168061237157607f821691505b6020821081036123845761238361232a565b5b50919050565b7f4e487b7100000000000000000000000000000000000000000000000000000000600052601160045260246000fd5b60006123c482611862565b91506123cf83611862565b92508282039050818111156123e7576123e661238a565b5b92915050565b7f4e487b7100000000000000000000000000000000000000000000000000000000600052603260045260246000fd5b600061242782611862565b91507fffffffffffffffffffffffffffffffffffffffffffffffffffffffffffffffff82036124595761245861238a565b5b600182019050919050565b7f4f6e6c792074686520636f6d706c61696e616e742063616e207265736f6c766560008201527f207468652076696f6c6174696f6e000000000000000000000000000000000000602082015250565b60006124c0602e83611911565b91506124cb82612464565b604082019050919050565b600060208201905081810360008301526124ef816124b3565b9050919050565b7f56696f6c6174696f6e20697320616c7265616479207265736f6c766564000000600082015250565b600061252c601d83611911565b9150612537826124f6565b602082019050919050565b6000602082019050818103600083015261255b8161251f565b9050919050565b7f496e76616c69642076696f6c6174696f6e207479706500000000000000000000600082015250565b6000612598601683611911565b91506125a382612562565b602082019050919050565b600060208201905081810360008301526125c78161258b565b9050919050565b60008190508160005260206000209050919050565b60006020601f8301049050919050565b600082821b905092915050565b6000600883026126307fffffffffffffffffffffffffffffffffffffffffffffffffffffffffffffffff826125f3565b61263a86836125f3565b95508019841693508086168417925050509392505050565b6000819050919050565b600061267761267261266d84611862565b612652565b611862565b9050919050565b6000819050919050565b6126918361265c565b6126a561269d8261267e565b848454612600565b825550505050565b600090565b6126ba6126ad565b6126c5818484612688565b505050565b5b818110156126e9576126de6000826126b2565b6001810190506126cb565b5050565b601f82111561272e576126ff816125ce565b612708846125e3565b81016020851015612717578190505b61272b612723856125e3565b8301826126ca565b50505b505050565b600082821c905092915050565b600061275160001984600802612733565b1980831691505092915050565b600061276a8383612740565b9150826002028217905092915050565b61278382611906565b67ffffffffffffffff81111561279c5761279b611ded565b5b6127a68254612359565b6127b18282856126ed565b600060209050601f8311600181146127e457600084156127d2578287015190505b6127dc858261275e565b865550612844565b601f1984166127f2866125ce565b60005b8281101561281a578489015182556001820191506020850194506020810190506127f5565b868310156128375784890151612833601f891682612740565b8355505b6001600288020188555050505b505050505050565b600061016082019050612862600083018e6118f7565b8181036020830152612874818d61195d565b90508181036040830152612888818c61195d565b9050612897606083018b611996565b81810360808301526128a9818a61195d565b905081810360a08301526128bd818961195d565b905081810360c08301526128d1818861195d565b905081810360e08301526128e5818761195d565b90508181036101008301526128fa818661195d565b905061290a610120830185611a0d565b81810361014083015261291d818461195d565b90509c9b50505050505050505050505056fea2646970667358221220e9c4b3575fa4576051ab01b024095f22bf12df7ea048766fe4277a2dcf0f978b64736f6c63430008110033","opcodes":"PUSH1 0x80 PUSH1 0x40 MSTORE CALLVALUE DUP1 ISZERO PUSH2 0x10 JUMPI PUSH1 0x0 DUP1 REVERT JUMPDEST POP PUSH1 0x0 PUSH1 0x1 DUP2 SWAP1 SSTORE POP PUSH2 0x2965 DUP1 PUSH2 0x28 PUSH1 0x0 CODECOPY PUSH1 0x0 RETURN INVALID PUSH1 0x80 PUSH1 0x40 MSTORE CALLVALUE DUP1 ISZERO PUSH2 0x10 JUMPI PUSH1 0x0 DUP1 REVERT JUMPDEST POP PUSH1 0x4 CALLDATASIZE LT PUSH2 0x7D JUMPI PUSH1 0x0 CALLDATALOAD PUSH1 0xE0 SHR DUP1 PUSH4 0xA20A2C00 GT PUSH2 0x5B JUMPI DUP1 PUSH4 0xA20A2C00 EQ PUSH2 0xF9 JUMPI DUP1 PUSH4 0xAB5961EE EQ PUSH2 0x115 JUMPI DUP1 PUSH4 0xB995BB95 EQ PUSH2 0x131 JUMPI DUP1 PUSH4 0xF2475995 EQ PUSH2 0x16C JUMPI PUSH2 0x7D JUMP JUMPDEST DUP1 PUSH4 0xA86A399 EQ PUSH2 0x82 JUMPI DUP1 PUSH4 0xDAC9539 EQ PUSH2 0xBD JUMPI DUP1 PUSH4 0x52388941 EQ PUSH2 0xDB JUMPI JUMPDEST PUSH1 0x0 DUP1 REVERT JUMPDEST PUSH2 0x9C PUSH1 0x4 DUP1 CALLDATASIZE SUB DUP2 ADD SWAP1 PUSH2 0x97 SWAP2 SWAP1 PUSH2 0x1898 JUMP JUMPDEST PUSH2 0x18A JUMP JUMPDEST PUSH1 0x40 MLOAD PUSH2 0xB4 SWAP13 SWAP12 SWAP11 SWAP10 SWAP9 SWAP8 SWAP7 SWAP6 SWAP5 SWAP4 SWAP3 SWAP2 SWAP1 PUSH2 0x1A37 JUMP JUMPDEST PUSH1 0x40 MLOAD DUP1 SWAP2 SUB SWAP1 RETURN JUMPDEST PUSH2 0xC5 PUSH2 0x7B3 JUMP JUMPDEST PUSH1 0x40 MLOAD PUSH2 0xD2 SWAP2 SWAP1 PUSH2 0x1DA6 JUMP JUMPDEST PUSH1 0x40 MLOAD DUP1 SWAP2 SUB SWAP1 RETURN JUMPDEST PUSH2 0xE3 PUSH2 0xDC8 JUMP JUMPDEST PUSH1 0x40 MLOAD PUSH2 0xF0 SWAP2 SWAP1 PUSH2 0x1DC8 JUMP JUMPDEST PUSH1 0x40 MLOAD DUP1 SWAP2 SUB SWAP1 RETURN JUMPDEST PUSH2 0x113 PUSH1 0x4 DUP1 CALLDATASIZE SUB DUP2 ADD SWAP1 PUSH2 0x10E SWAP2 SWAP1 PUSH2 0x1898 JUMP JUMPDEST PUSH2 0xDCE JUMP JUMPDEST STOP JUMPDEST PUSH2 0x12F PUSH1 0x4 DUP1 CALLDATASIZE SUB DUP2 ADD SWAP1 PUSH2 0x12A SWAP2 SWAP1 PUSH2 0x1F51 JUMP JUMPDEST PUSH2 0xF77 JUMP JUMPDEST STOP JUMPDEST PUSH2 0x14B PUSH1 0x4 DUP1 CALLDATASIZE SUB DUP2 ADD SWAP1 PUSH2 0x146 SWAP2 SWAP1 PUSH2 0x1898 JUMP JUMPDEST PUSH2 0x1241 JUMP JUMPDEST PUSH1 0x40 MLOAD PUSH2 0x163 SWAP13 SWAP12 SWAP11 SWAP10 SWAP9 SWAP8 SWAP7 SWAP6 SWAP5 SWAP4 SWAP3 SWAP2 SWAP1 PUSH2 0x20FB JUMP JUMPDEST PUSH1 0x40 MLOAD DUP1 SWAP2 SUB SWAP1 RETURN JUMPDEST PUSH2 0x174 PUSH2 0x171B JUMP JUMPDEST PUSH1 0x40 MLOAD PUSH2 0x181 SWAP2 SWAP1 PUSH2 0x229C JUMP JUMPDEST PUSH1 0x40 MLOAD DUP1 SWAP2 SUB SWAP1 RETURN JUMPDEST PUSH1 0x0 PUSH1 0x60 DUP1 PUSH1 0x60 PUSH1 0x0 PUSH1 0x60 DUP1 PUSH1 0x60 DUP1 PUSH1 0x0 DUP1 PUSH1 0x60 PUSH1 0x1 SLOAD DUP14 GT ISZERO PUSH2 0x1E3 JUMPI PUSH1 0x40 MLOAD PUSH32 0x8C379A000000000000000000000000000000000000000000000000000000000 DUP2 MSTORE PUSH1 0x4 ADD PUSH2 0x1DA SWAP1 PUSH2 0x230A JUMP JUMPDEST PUSH1 0x40 MLOAD DUP1 SWAP2 SUB SWAP1 REVERT JUMPDEST PUSH1 0x0 DUP1 PUSH1 0x0 DUP16 DUP2 MSTORE PUSH1 0x20 ADD SWAP1 DUP2 MSTORE PUSH1 0x20 ADD PUSH1 0x0 KECCAK256 PUSH1 0x40 MLOAD DUP1 PUSH2 0x180 ADD PUSH1 0x40 MSTORE SWAP1 DUP2 PUSH1 0x0 DUP3 ADD PUSH1 0x0 SWAP1 SLOAD SWAP1 PUSH2 0x100 EXP SWAP1 DIV PUSH20 0xFFFFFFFFFFFFFFFFFFFFFFFFFFFFFFFFFFFFFFFF AND PUSH20 0xFFFFFFFFFFFFFFFFFFFFFFFFFFFFFFFFFFFFFFFF AND PUSH20 0xFFFFFFFFFFFFFFFFFFFFFFFFFFFFFFFFFFFFFFFF AND DUP2 MSTORE PUSH1 0x20 ADD PUSH1 0x1 DUP3 ADD DUP1 SLOAD PUSH2 0x269 SWAP1 PUSH2 0x2359 JUMP JUMPDEST DUP1 PUSH1 0x1F ADD PUSH1 0x20 DUP1 SWAP2 DIV MUL PUSH1 0x20 ADD PUSH1 0x40 MLOAD SWAP1 DUP2 ADD PUSH1 0x40 MSTORE DUP1 SWAP3 SWAP2 SWAP1 DUP2 DUP2 MSTORE PUSH1 0x20 ADD DUP3 DUP1 SLOAD PUSH2 0x295 SWAP1 PUSH2 0x2359 JUMP JUMPDEST DUP1 ISZERO PUSH2 0x2E2 JUMPI DUP1 PUSH1 0x1F LT PUSH2 0x2B7 JUMPI PUSH2 0x100 DUP1 DUP4 SLOAD DIV MUL DUP4 MSTORE SWAP2 PUSH1 0x20 ADD SWAP2 PUSH2 0x2E2 JUMP JUMPDEST DUP3 ADD SWAP2 SWAP1 PUSH1 0x0 MSTORE PUSH1 0x20 PUSH1 0x0 KECCAK256 SWAP1 JUMPDEST DUP2 SLOAD DUP2 MSTORE SWAP1 PUSH1 0x1 ADD SWAP1 PUSH1 0x20 ADD DUP1 DUP4 GT PUSH2 0x2C5 JUMPI DUP3 SWAP1 SUB PUSH1 0x1F AND DUP3 ADD SWAP2 JUMPDEST POP POP POP POP POP DUP2 MSTORE PUSH1 0x20 ADD PUSH1 0x2 DUP3 ADD DUP1 SLOAD PUSH2 0x2FB SWAP1 PUSH2 0x2359 JUMP JUMPDEST DUP1 PUSH1 0x1F ADD PUSH1 0x20 DUP1 SWAP2 DIV MUL PUSH1 0x20 ADD PUSH1 0x40 MLOAD SWAP1 DUP2 ADD PUSH1 0x40 MSTORE DUP1 SWAP3 SWAP2 SWAP1 DUP2 DUP2 MSTORE PUSH1 0x20 ADD DUP3 DUP1 SLOAD PUSH2 0x327 SWAP1 PUSH2 0x2359 JUMP JUMPDEST DUP1 ISZERO PUSH2 0x374 JUMPI DUP1 PUSH1 0x1F LT PUSH2 0x349 JUMPI PUSH2 0x100 DUP1 DUP4 SLOAD DIV MUL DUP4 MSTORE SWAP2 PUSH1 0x20 ADD SWAP2 PUSH2 0x374 JUMP JUMPDEST DUP3 ADD SWAP2 SWAP1 PUSH1 0x0 MSTORE PUSH1 0x20 PUSH1 0x0 KECCAK256 SWAP1 JUMPDEST DUP2 SLOAD DUP2 MSTORE SWAP1 PUSH1 0x1 ADD SWAP1 PUSH1 0x20 ADD DUP1 DUP4 GT PUSH2 0x357 JUMPI DUP3 SWAP1 SUB PUSH1 0x1F AND DUP3 ADD SWAP2 JUMPDEST POP POP POP POP POP DUP2 MSTORE PUSH1 0x20 ADD PUSH1 0x3 DUP3 ADD SLOAD DUP2 MSTORE PUSH1 0x20 ADD PUSH1 0x4 DUP3 ADD DUP1 SLOAD PUSH2 0x397 SWAP1 PUSH2 0x2359 JUMP JUMPDEST DUP1 PUSH1 0x1F ADD PUSH1 0x20 DUP1 SWAP2 DIV MUL PUSH1 0x20 ADD PUSH1 0x40 MLOAD SWAP1 DUP2 ADD PUSH1 0x40 MSTORE DUP1 SWAP3 SWAP2 SWAP1 DUP2 DUP2 MSTORE PUSH1 0x20 ADD DUP3 DUP1 SLOAD PUSH2 0x3C3 SWAP1 PUSH2 0x2359 JUMP JUMPDEST DUP1 ISZERO PUSH2 0x410 JUMPI DUP1 PUSH1 0x1F LT PUSH2 0x3E5 JUMPI PUSH2 0x100 DUP1 DUP4 SLOAD DIV MUL DUP4 MSTORE SWAP2 PUSH1 0x20 ADD SWAP2 PUSH2 0x410 JUMP JUMPDEST DUP3 ADD SWAP2 SWAP1 PUSH1 0x0 MSTORE PUSH1 0x20 PUSH1 0x0 KECCAK256 SWAP1 JUMPDEST DUP2 SLOAD DUP2 MSTORE SWAP1 PUSH1 0x1 ADD SWAP1 PUSH1 0x20 ADD DUP1 DUP4 GT PUSH2 0x3F3 JUMPI DUP3 SWAP1 SUB PUSH1 0x1F AND DUP3 ADD SWAP2 JUMPDEST POP POP POP POP POP DUP2 MSTORE PUSH1 0x20 ADD PUSH1 0x5 DUP3 ADD DUP1 SLOAD PUSH2 0x429 SWAP1 PUSH2 0x2359 JUMP JUMPDEST DUP1 PUSH1 0x1F ADD PUSH1 0x20 DUP1 SWAP2 DIV MUL PUSH1 0x20 ADD PUSH1 0x40 MLOAD SWAP1 DUP2 ADD PUSH1 0x40 MSTORE DUP1 SWAP3 SWAP2 SWAP1 DUP2 DUP2 MSTORE PUSH1 0x20 ADD DUP3 DUP1 SLOAD PUSH2 0x455 SWAP1 PUSH2 0x2359 JUMP JUMPDEST DUP1 ISZERO PUSH2 0x4A2 JUMPI DUP1 PUSH1 0x1F LT PUSH2 0x477 JUMPI PUSH2 0x100 DUP1 DUP4 SLOAD DIV MUL DUP4 MSTORE SWAP2 PUSH1 0x20 ADD SWAP2 PUSH2 0x4A2 JUMP JUMPDEST DUP3 ADD SWAP2 SWAP1 PUSH1 0x0 MSTORE PUSH1 0x20 PUSH1 0x0 KECCAK256 SWAP1 JUMPDEST DUP2 SLOAD DUP2 MSTORE SWAP1 PUSH1 0x1 ADD SWAP1 PUSH1 0x20 ADD DUP1 DUP4 GT PUSH2 0x485 JUMPI DUP3 SWAP1 SUB PUSH1 0x1F AND DUP3 ADD SWAP2 JUMPDEST POP POP POP POP POP DUP2 MSTORE PUSH1 0x20 ADD PUSH1 0x6 DUP3 ADD DUP1 SLOAD PUSH2 0x4BB SWAP1 PUSH2 0x2359 JUMP JUMPDEST DUP1 PUSH1 0x1F ADD PUSH1 0x20 DUP1 SWAP2 DIV MUL PUSH1 0x20 ADD PUSH1 0x40 MLOAD SWAP1 DUP2 ADD PUSH1 0x40 MSTORE DUP1 SWAP3 SWAP2 SWAP1 DUP2 DUP2 MSTORE PUSH1 0x20 ADD DUP3 DUP1 SLOAD PUSH2 0x4E7 SWAP1 PUSH2 0x2359 JUMP JUMPDEST DUP1 ISZERO PUSH2 0x534 JUMPI DUP1 PUSH1 0x1F LT PUSH2 0x509 JUMPI PUSH2 0x100 DUP1 DUP4 SLOAD DIV MUL DUP4 MSTORE SWAP2 PUSH1 0x20 ADD SWAP2 PUSH2 0x534 JUMP JUMPDEST DUP3 ADD SWAP2 SWAP1 PUSH1 0x0 MSTORE PUSH1 0x20 PUSH1 0x0 KECCAK256 SWAP1 JUMPDEST DUP2 SLOAD DUP2 MSTORE SWAP1 PUSH1 0x1 ADD SWAP1 PUSH1 0x20 ADD DUP1 DUP4 GT PUSH2 0x517 JUMPI DUP3 SWAP1 SUB PUSH1 0x1F AND DUP3 ADD SWAP2 JUMPDEST POP POP POP POP POP DUP2 MSTORE PUSH1 0x20 ADD PUSH1 0x7 DUP3 ADD DUP1 SLOAD PUSH2 0x54D SWAP1 PUSH2 0x2359 JUMP JUMPDEST DUP1 PUSH1 0x1F ADD PUSH1 0x20 DUP1 SWAP2 DIV MUL PUSH1 0x20 ADD PUSH1 0x40 MLOAD SWAP1 DUP2 ADD PUSH1 0x40 MSTORE DUP1 SWAP3 SWAP2 SWAP1 DUP2 DUP2 MSTORE PUSH1 0x20 ADD DUP3 DUP1 SLOAD PUSH2 0x579 SWAP1 PUSH2 0x2359 JUMP JUMPDEST DUP1 ISZERO PUSH2 0x5C6 JUMPI DUP1 PUSH1 0x1F LT PUSH2 0x59B JUMPI PUSH2 0x100 DUP1 DUP4 SLOAD DIV MUL DUP4 MSTORE SWAP2 PUSH1 0x20 ADD SWAP2 PUSH2 0x5C6 JUMP JUMPDEST DUP3 ADD SWAP2 SWAP1 PUSH1 0x0 MSTORE PUSH1 0x20 PUSH1 0x0 KECCAK256 SWAP1 JUMPDEST DUP2 SLOAD DUP2 MSTORE SWAP1 PUSH1 0x1 ADD SWAP1 PUSH1 0x20 ADD DUP1 DUP4 GT PUSH2 0x5A9 JUMPI DUP3 SWAP1 SUB PUSH1 0x1F AND DUP3 ADD SWAP2 JUMPDEST POP POP POP POP POP DUP2 MSTORE PUSH1 0x20 ADD PUSH1 0x8 DUP3 ADD DUP1 SLOAD PUSH2 0x5DF SWAP1 PUSH2 0x2359 JUMP JUMPDEST DUP1 PUSH1 0x1F ADD PUSH1 0x20 DUP1 SWAP2 DIV MUL PUSH1 0x20 ADD PUSH1 0x40 MLOAD SWAP1 DUP2 ADD PUSH1 0x40 MSTORE DUP1 SWAP3 SWAP2 SWAP1 DUP2 DUP2 MSTORE PUSH1 0x20 ADD DUP3 DUP1 SLOAD PUSH2 0x60B SWAP1 PUSH2 0x2359 JUMP JUMPDEST DUP1 ISZERO PUSH2 0x658 JUMPI DUP1 PUSH1 0x1F LT PUSH2 0x62D JUMPI PUSH2 0x100 DUP1 DUP4 SLOAD DIV MUL DUP4 MSTORE SWAP2 PUSH1 0x20 ADD SWAP2 PUSH2 0x658 JUMP JUMPDEST DUP3 ADD SWAP2 SWAP1 PUSH1 0x0 MSTORE PUSH1 0x20 PUSH1 0x0 KECCAK256 SWAP1 JUMPDEST DUP2 SLOAD DUP2 MSTORE SWAP1 PUSH1 0x1 ADD SWAP1 PUSH1 0x20 ADD DUP1 DUP4 GT PUSH2 0x63B JUMPI DUP3 SWAP1 SUB PUSH1 0x1F AND DUP3 ADD SWAP2 JUMPDEST POP POP POP POP POP DUP2 MSTORE PUSH1 0x20 ADD PUSH1 0x9 DUP3 ADD PUSH1 0x0 SWAP1 SLOAD SWAP1 PUSH2 0x100 EXP SWAP1 DIV PUSH1 0xFF AND PUSH1 0x3 DUP2 GT ISZERO PUSH2 0x686 JUMPI PUSH2 0x685 PUSH2 0x19A5 JUMP JUMPDEST JUMPDEST PUSH1 0x3 DUP2 GT ISZERO PUSH2 0x698 JUMPI PUSH2 0x697 PUSH2 0x19A5 JUMP JUMPDEST JUMPDEST DUP2 MSTORE PUSH1 0x20 ADD PUSH1 0x9 DUP3 ADD PUSH1 0x1 SWAP1 SLOAD SWAP1 PUSH2 0x100 EXP SWAP1 DIV PUSH1 0xFF AND ISZERO ISZERO ISZERO ISZERO DUP2 MSTORE PUSH1 0x20 ADD PUSH1 0xA DUP3 ADD DUP1 SLOAD PUSH2 0x6C7 SWAP1 PUSH2 0x2359 JUMP JUMPDEST DUP1 PUSH1 0x1F ADD PUSH1 0x20 DUP1 SWAP2 DIV MUL PUSH1 0x20 ADD PUSH1 0x40 MLOAD SWAP1 DUP2 ADD PUSH1 0x40 MSTORE DUP1 SWAP3 SWAP2 SWAP1 DUP2 DUP2 MSTORE PUSH1 0x20 ADD DUP3 DUP1 SLOAD PUSH2 0x6F3 SWAP1 PUSH2 0x2359 JUMP JUMPDEST DUP1 ISZERO PUSH2 0x740 JUMPI DUP1 PUSH1 0x1F LT PUSH2 0x715 JUMPI PUSH2 0x100 DUP1 DUP4 SLOAD DIV MUL DUP4 MSTORE SWAP2 PUSH1 0x20 ADD SWAP2 PUSH2 0x740 JUMP JUMPDEST DUP3 ADD SWAP2 SWAP1 PUSH1 0x0 MSTORE PUSH1 0x20 PUSH1 0x0 KECCAK256 SWAP1 JUMPDEST DUP2 SLOAD DUP2 MSTORE SWAP1 PUSH1 0x1 ADD SWAP1 PUSH1 0x20 ADD DUP1 DUP4 GT PUSH2 0x723 JUMPI DUP3 SWAP1 SUB PUSH1 0x1F AND DUP3 ADD SWAP2 JUMPDEST POP POP POP POP POP DUP2 MSTORE POP POP SWAP1 POP DUP1 PUSH1 0x0 ADD MLOAD DUP2 PUSH1 0x20 ADD MLOAD DUP3 PUSH1 0x40 ADD MLOAD DUP4 PUSH1 0x80 ADD MLOAD DUP5 PUSH1 0x60 ADD MLOAD DUP6 PUSH1 0xA0 ADD MLOAD DUP7 PUSH1 0xC0 ADD MLOAD DUP8 PUSH1 0xE0 ADD MLOAD DUP9 PUSH2 0x100 ADD MLOAD DUP10 PUSH2 0x120 ADD MLOAD DUP11 PUSH2 0x140 ADD MLOAD DUP12 PUSH2 0x160 ADD MLOAD SWAP13 POP SWAP13 POP SWAP13 POP SWAP13 POP SWAP13 POP SWAP13 POP SWAP13 POP SWAP13 POP SWAP13 POP SWAP13 POP SWAP13 POP SWAP13 POP POP SWAP2 SWAP4 SWAP6 SWAP8 SWAP10 SWAP12 POP SWAP2 SWAP4 SWAP6 SWAP8 SWAP10 SWAP12 JUMP JUMPDEST PUSH1 0x60 PUSH1 0x0 PUSH1 0x1 SLOAD PUSH8 0xFFFFFFFFFFFFFFFF DUP2 GT ISZERO PUSH2 0x7D3 JUMPI PUSH2 0x7D2 PUSH2 0x1DED JUMP JUMPDEST JUMPDEST PUSH1 0x40 MLOAD SWAP1 DUP1 DUP3 MSTORE DUP1 PUSH1 0x20 MUL PUSH1 0x20 ADD DUP3 ADD PUSH1 0x40 MSTORE DUP1 ISZERO PUSH2 0x80C JUMPI DUP2 PUSH1 0x20 ADD JUMPDEST PUSH2 0x7F9 PUSH2 0x17C3 JUMP JUMPDEST DUP2 MSTORE PUSH1 0x20 ADD SWAP1 PUSH1 0x1 SWAP1 SUB SWAP1 DUP2 PUSH2 0x7F1 JUMPI SWAP1 POP JUMPDEST POP SWAP1 POP PUSH1 0x0 PUSH1 0x1 SWAP1 POP JUMPDEST PUSH1 0x1 SLOAD DUP2 GT PUSH2 0xDC0 JUMPI PUSH1 0x0 DUP1 DUP3 DUP2 MSTORE PUSH1 0x20 ADD SWAP1 DUP2 MSTORE PUSH1 0x20 ADD PUSH1 0x0 KECCAK256 PUSH1 0x40 MLOAD DUP1 PUSH2 0x180 ADD PUSH1 0x40 MSTORE SWAP1 DUP2 PUSH1 0x0 DUP3 ADD PUSH1 0x0 SWAP1 SLOAD SWAP1 PUSH2 0x100 EXP SWAP1 DIV PUSH20 0xFFFFFFFFFFFFFFFFFFFFFFFFFFFFFFFFFFFFFFFF AND PUSH20 0xFFFFFFFFFFFFFFFFFFFFFFFFFFFFFFFFFFFFFFFF AND PUSH20 0xFFFFFFFFFFFFFFFFFFFFFFFFFFFFFFFFFFFFFFFF AND DUP2 MSTORE PUSH1 0x20 ADD PUSH1 0x1 DUP3 ADD DUP1 SLOAD PUSH2 0x8A3 SWAP1 PUSH2 0x2359 JUMP JUMPDEST DUP1 PUSH1 0x1F ADD PUSH1 0x20 DUP1 SWAP2 DIV MUL PUSH1 0x20 ADD PUSH1 0x40 MLOAD SWAP1 DUP2 ADD PUSH1 0x40 MSTORE DUP1 SWAP3 SWAP2 SWAP1 DUP2 DUP2 MSTORE PUSH1 0x20 ADD DUP3 DUP1 SLOAD PUSH2 0x8CF SWAP1 PUSH2 0x2359 JUMP JUMPDEST DUP1 ISZERO PUSH2 0x91C JUMPI DUP1 PUSH1 0x1F LT PUSH2 0x8F1 JUMPI PUSH2 0x100 DUP1 DUP4 SLOAD DIV MUL DUP4 MSTORE SWAP2 PUSH1 0x20 ADD SWAP2 PUSH2 0x91C JUMP JUMPDEST DUP3 ADD SWAP2 SWAP1 PUSH1 0x0 MSTORE PUSH1 0x20 PUSH1 0x0 KECCAK256 SWAP1 JUMPDEST DUP2 SLOAD DUP2 MSTORE SWAP1 PUSH1 0x1 ADD SWAP1 PUSH1 0x20 ADD DUP1 DUP4 GT PUSH2 0x8FF JUMPI DUP3 SWAP1 SUB PUSH1 0x1F AND DUP3 ADD SWAP2 JUMPDEST POP POP POP POP POP DUP2 MSTORE PUSH1 0x20 ADD PUSH1 0x2 DUP3 ADD DUP1 SLOAD PUSH2 0x935 SWAP1 PUSH2 0x2359 JUMP JUMPDEST DUP1 PUSH1 0x1F ADD PUSH1 0x20 DUP1 SWAP2 DIV MUL PUSH1 0x20 ADD PUSH1 0x40 MLOAD SWAP1 DUP2 ADD PUSH1 0x40 MSTORE DUP1 SWAP3 SWAP2 SWAP1 DUP2 DUP2 MSTORE PUSH1 0x20 ADD DUP3 DUP1 SLOAD PUSH2 0x961 SWAP1 PUSH2 0x2359 JUMP JUMPDEST DUP1 ISZERO PUSH2 0x9AE JUMPI DUP1 PUSH1 0x1F LT PUSH2 0x983 JUMPI PUSH2 0x100 DUP1 DUP4 SLOAD DIV MUL DUP4 MSTORE SWAP2 PUSH1 0x20 ADD SWAP2 PUSH2 0x9AE JUMP JUMPDEST DUP3 ADD SWAP2 SWAP1 PUSH1 0x0 MSTORE PUSH1 0x20 PUSH1 0x0 KECCAK256 SWAP1 JUMPDEST DUP2 SLOAD DUP2 MSTORE SWAP1 PUSH1 0x1 ADD SWAP1 PUSH1 0x20 ADD DUP1 DUP4 GT PUSH2 0x991 JUMPI DUP3 SWAP1 SUB PUSH1 0x1F AND DUP3 ADD SWAP2 JUMPDEST POP POP POP POP POP DUP2 MSTORE PUSH1 0x20 ADD PUSH1 0x3 DUP3 ADD SLOAD DUP2 MSTORE PUSH1 0x20 ADD PUSH1 0x4 DUP3 ADD DUP1 SLOAD PUSH2 0x9D1 SWAP1 PUSH2 0x2359 JUMP JUMPDEST DUP1 PUSH1 0x1F ADD PUSH1 0x20 DUP1 SWAP2 DIV MUL PUSH1 0x20 ADD PUSH1 0x40 MLOAD SWAP1 DUP2 ADD PUSH1 0x40 MSTORE DUP1 SWAP3 SWAP2 SWAP1 DUP2 DUP2 MSTORE PUSH1 0x20 ADD DUP3 DUP1 SLOAD PUSH2 0x9FD SWAP1 PUSH2 0x2359 JUMP JUMPDEST DUP1 ISZERO PUSH2 0xA4A JUMPI DUP1 PUSH1 0x1F LT PUSH2 0xA1F JUMPI PUSH2 0x100 DUP1 DUP4 SLOAD DIV MUL DUP4 MSTORE SWAP2 PUSH1 0x20 ADD SWAP2 PUSH2 0xA4A JUMP JUMPDEST DUP3 ADD SWAP2 SWAP1 PUSH1 0x0 MSTORE PUSH1 0x20 PUSH1 0x0 KECCAK256 SWAP1 JUMPDEST DUP2 SLOAD DUP2 MSTORE SWAP1 PUSH1 0x1 ADD SWAP1 PUSH1 0x20 ADD DUP1 DUP4 GT PUSH2 0xA2D JUMPI DUP3 SWAP1 SUB PUSH1 0x1F AND DUP3 ADD SWAP2 JUMPDEST POP POP POP POP POP DUP2 MSTORE PUSH1 0x20 ADD PUSH1 0x5 DUP3 ADD DUP1 SLOAD PUSH2 0xA63 SWAP1 PUSH2 0x2359 JUMP JUMPDEST DUP1 PUSH1 0x1F ADD PUSH1 0x20 DUP1 SWAP2 DIV MUL PUSH1 0x20 ADD PUSH1 0x40 MLOAD SWAP1 DUP2 ADD PUSH1 0x40 MSTORE DUP1 SWAP3 SWAP2 SWAP1 DUP2 DUP2 MSTORE PUSH1 0x20 ADD DUP3 DUP1 SLOAD PUSH2 0xA8F SWAP1 PUSH2 0x2359 JUMP JUMPDEST DUP1 ISZERO PUSH2 0xADC JUMPI DUP1 PUSH1 0x1F LT PUSH2 0xAB1 JUMPI PUSH2 0x100 DUP1 DUP4 SLOAD DIV MUL DUP4 MSTORE SWAP2 PUSH1 0x20 ADD SWAP2 PUSH2 0xADC JUMP JUMPDEST DUP3 ADD SWAP2 SWAP1 PUSH1 0x0 MSTORE PUSH1 0x20 PUSH1 0x0 KECCAK256 SWAP1 JUMPDEST DUP2 SLOAD DUP2 MSTORE SWAP1 PUSH1 0x1 ADD SWAP1 PUSH1 0x20 ADD DUP1 DUP4 GT PUSH2 0xABF JUMPI DUP3 SWAP1 SUB PUSH1 0x1F AND DUP3 ADD SWAP2 JUMPDEST POP POP POP POP POP DUP2 MSTORE PUSH1 0x20 ADD PUSH1 0x6 DUP3 ADD DUP1 SLOAD PUSH2 0xAF5 SWAP1 PUSH2 0x2359 JUMP JUMPDEST DUP1 PUSH1 0x1F ADD PUSH1 0x20 DUP1 SWAP2 DIV MUL PUSH1 0x20 ADD PUSH1 0x40 MLOAD SWAP1 DUP2 ADD PUSH1 0x40 MSTORE DUP1 SWAP3 SWAP2 SWAP1 DUP2 DUP2 MSTORE PUSH1 0x20 ADD DUP3 DUP1 SLOAD PUSH2 0xB21 SWAP1 PUSH2 0x2359 JUMP JUMPDEST DUP1 ISZERO PUSH2 0xB6E JUMPI DUP1 PUSH1 0x1F LT PUSH2 0xB43 JUMPI PUSH2 0x100 DUP1 DUP4 SLOAD DIV MUL DUP4 MSTORE SWAP2 PUSH1 0x20 ADD SWAP2 PUSH2 0xB6E JUMP JUMPDEST DUP3 ADD SWAP2 SWAP1 PUSH1 0x0 MSTORE PUSH1 0x20 PUSH1 0x0 KECCAK256 SWAP1 JUMPDEST DUP2 SLOAD DUP2 MSTORE SWAP1 PUSH1 0x1 ADD SWAP1 PUSH1 0x20 ADD DUP1 DUP4 GT PUSH2 0xB51 JUMPI DUP3 SWAP1 SUB PUSH1 0x1F AND DUP3 ADD SWAP2 JUMPDEST POP POP POP POP POP DUP2 MSTORE PUSH1 0x20 ADD PUSH1 0x7 DUP3 ADD DUP1 SLOAD PUSH2 0xB87 SWAP1 PUSH2 0x2359 JUMP JUMPDEST DUP1 PUSH1 0x1F ADD PUSH1 0x20 DUP1 SWAP2 DIV MUL PUSH1 0x20 ADD PUSH1 0x40 MLOAD SWAP1 DUP2 ADD PUSH1 0x40 MSTORE DUP1 SWAP3 SWAP2 SWAP1 DUP2 DUP2 MSTORE PUSH1 0x20 ADD DUP3 DUP1 SLOAD PUSH2 0xBB3 SWAP1 PUSH2 0x2359 JUMP JUMPDEST DUP1 ISZERO PUSH2 0xC00 JUMPI DUP1 PUSH1 0x1F LT PUSH2 0xBD5 JUMPI PUSH2 0x100 DUP1 DUP4 SLOAD DIV MUL DUP4 MSTORE SWAP2 PUSH1 0x20 ADD SWAP2 PUSH2 0xC00 JUMP JUMPDEST DUP3 ADD SWAP2 SWAP1 PUSH1 0x0 MSTORE PUSH1 0x20 PUSH1 0x0 KECCAK256 SWAP1 JUMPDEST DUP2 SLOAD DUP2 MSTORE SWAP1 PUSH1 0x1 ADD SWAP1 PUSH1 0x20 ADD DUP1 DUP4 GT PUSH2 0xBE3 JUMPI DUP3 SWAP1 SUB PUSH1 0x1F AND DUP3 ADD SWAP2 JUMPDEST POP POP POP POP POP DUP2 MSTORE PUSH1 0x20 ADD PUSH1 0x8 DUP3 ADD DUP1 SLOAD PUSH2 0xC19 SWAP1 PUSH2 0x2359 JUMP JUMPDEST DUP1 PUSH1 0x1F ADD PUSH1 0x20 DUP1 SWAP2 DIV MUL PUSH1 0x20 ADD PUSH1 0x40 MLOAD SWAP1 DUP2 ADD PUSH1 0x40 MSTORE DUP1 SWAP3 SWAP2 SWAP1 DUP2 DUP2 MSTORE PUSH1 0x20 ADD DUP3 DUP1 SLOAD PUSH2 0xC45 SWAP1 PUSH2 0x2359 JUMP JUMPDEST DUP1 ISZERO PUSH2 0xC92 JUMPI DUP1 PUSH1 0x1F LT PUSH2 0xC67 JUMPI PUSH2 0x100 DUP1 DUP4 SLOAD DIV MUL DUP4 MSTORE SWAP2 PUSH1 0x20 ADD SWAP2 PUSH2 0xC92 JUMP JUMPDEST DUP3 ADD SWAP2 SWAP1 PUSH1 0x0 MSTORE PUSH1 0x20 PUSH1 0x0 KECCAK256 SWAP1 JUMPDEST DUP2 SLOAD DUP2 MSTORE SWAP1 PUSH1 0x1 ADD SWAP1 PUSH1 0x20 ADD DUP1 DUP4 GT PUSH2 0xC75 JUMPI DUP3 SWAP1 SUB PUSH1 0x1F AND DUP3 ADD SWAP2 JUMPDEST POP POP POP POP POP DUP2 MSTORE PUSH1 0x20 ADD PUSH1 0x9 DUP3 ADD PUSH1 0x0 SWAP1 SLOAD SWAP1 PUSH2 0x100 EXP SWAP1 DIV PUSH1 0xFF AND PUSH1 0x3 DUP2 GT ISZERO PUSH2 0xCC0 JUMPI PUSH2 0xCBF PUSH2 0x19A5 JUMP JUMPDEST JUMPDEST PUSH1 0x3 DUP2 GT ISZERO PUSH2 0xCD2 JUMPI PUSH2 0xCD1 PUSH2 0x19A5 JUMP JUMPDEST JUMPDEST DUP2 MSTORE PUSH1 0x20 ADD PUSH1 0x9 DUP3 ADD PUSH1 0x1 SWAP1 SLOAD SWAP1 PUSH2 0x100 EXP SWAP1 DIV PUSH1 0xFF AND ISZERO ISZERO ISZERO ISZERO DUP2 MSTORE PUSH1 0x20 ADD PUSH1 0xA DUP3 ADD DUP1 SLOAD PUSH2 0xD01 SWAP1 PUSH2 0x2359 JUMP JUMPDEST DUP1 PUSH1 0x1F ADD PUSH1 0x20 DUP1 SWAP2 DIV MUL PUSH1 0x20 ADD PUSH1 0x40 MLOAD SWAP1 DUP2 ADD PUSH1 0x40 MSTORE DUP1 SWAP3 SWAP2 SWAP1 DUP2 DUP2 MSTORE PUSH1 0x20 ADD DUP3 DUP1 SLOAD PUSH2 0xD2D SWAP1 PUSH2 0x2359 JUMP JUMPDEST DUP1 ISZERO PUSH2 0xD7A JUMPI DUP1 PUSH1 0x1F LT PUSH2 0xD4F JUMPI PUSH2 0x100 DUP1 DUP4 SLOAD DIV MUL DUP4 MSTORE SWAP2 PUSH1 0x20 ADD SWAP2 PUSH2 0xD7A JUMP JUMPDEST DUP3 ADD SWAP2 SWAP1 PUSH1 0x0 MSTORE PUSH1 0x20 PUSH1 0x0 KECCAK256 SWAP1 JUMPDEST DUP2 SLOAD DUP2 MSTORE SWAP1 PUSH1 0x1 ADD SWAP1 PUSH1 0x20 ADD DUP1 DUP4 GT PUSH2 0xD5D JUMPI DUP3 SWAP1 SUB PUSH1 0x1F AND DUP3 ADD SWAP2 JUMPDEST POP POP POP POP POP DUP2 MSTORE POP POP DUP3 PUSH1 0x1 DUP4 PUSH2 0xD91 SWAP2 SWAP1 PUSH2 0x23B9 JUMP JUMPDEST DUP2 MLOAD DUP2 LT PUSH2 0xDA2 JUMPI PUSH2 0xDA1 PUSH2 0x23ED JUMP JUMPDEST JUMPDEST PUSH1 0x20 MUL PUSH1 0x20 ADD ADD DUP2 SWAP1 MSTORE POP DUP1 DUP1 PUSH2 0xDB8 SWAP1 PUSH2 0x241C JUMP JUMPDEST SWAP2 POP POP PUSH2 0x816 JUMP JUMPDEST POP DUP1 SWAP2 POP POP SWAP1 JUMP JUMPDEST PUSH1 0x1 SLOAD DUP2 JUMP JUMPDEST PUSH1 0x1 SLOAD DUP2 GT ISZERO PUSH2 0xE13 JUMPI PUSH1 0x40 MLOAD PUSH32 0x8C379A000000000000000000000000000000000000000000000000000000000 DUP2 MSTORE PUSH1 0x4 ADD PUSH2 0xE0A SWAP1 PUSH2 0x230A JUMP JUMPDEST PUSH1 0x40 MLOAD DUP1 SWAP2 SUB SWAP1 REVERT JUMPDEST CALLER PUSH20 0xFFFFFFFFFFFFFFFFFFFFFFFFFFFFFFFFFFFFFFFF AND PUSH1 0x0 DUP1 DUP4 DUP2 MSTORE PUSH1 0x20 ADD SWAP1 DUP2 MSTORE PUSH1 0x20 ADD PUSH1 0x0 KECCAK256 PUSH1 0x0 ADD PUSH1 0x0 SWAP1 SLOAD SWAP1 PUSH2 0x100 EXP SWAP1 DIV PUSH20 0xFFFFFFFFFFFFFFFFFFFFFFFFFFFFFFFFFFFFFFFF AND PUSH20 0xFFFFFFFFFFFFFFFFFFFFFFFFFFFFFFFFFFFFFFFF AND EQ PUSH2 0xEB6 JUMPI PUSH1 0x40 MLOAD PUSH32 0x8C379A000000000000000000000000000000000000000000000000000000000 DUP2 MSTORE PUSH1 0x4 ADD PUSH2 0xEAD SWAP1 PUSH2 0x24D6 JUMP JUMPDEST PUSH1 0x40 MLOAD DUP1 SWAP2 SUB SWAP1 REVERT JUMPDEST PUSH1 0x0 DUP1 DUP3 DUP2 MSTORE PUSH1 0x20 ADD SWAP1 DUP2 MSTORE PUSH1 0x20 ADD PUSH1 0x0 KECCAK256 PUSH1 0x9 ADD PUSH1 0x1 SWAP1 SLOAD SWAP1 PUSH2 0x100 EXP SWAP1 DIV PUSH1 0xFF AND ISZERO PUSH2 0xF19 JUMPI PUSH1 0x40 MLOAD PUSH32 0x8C379A000000000000000000000000000000000000000000000000000000000 DUP2 MSTORE PUSH1 0x4 ADD PUSH2 0xF10 SWAP1 PUSH2 0x2542 JUMP JUMPDEST PUSH1 0x40 MLOAD DUP1 SWAP2 SUB SWAP1 REVERT JUMPDEST PUSH1 0x1 PUSH1 0x0 DUP1 DUP4 DUP2 MSTORE PUSH1 0x20 ADD SWAP1 DUP2 MSTORE PUSH1 0x20 ADD PUSH1 0x0 KECCAK256 PUSH1 0x9 ADD PUSH1 0x1 PUSH2 0x100 EXP DUP2 SLOAD DUP2 PUSH1 0xFF MUL NOT AND SWAP1 DUP4 ISZERO ISZERO MUL OR SWAP1 SSTORE POP DUP1 PUSH32 0xD3C146E35D5F36E786EFFC7299DEBF0FA3C1F6785B0636AD5E18B935539CA4BB PUSH1 0x40 MLOAD PUSH1 0x40 MLOAD DUP1 SWAP2 SUB SWAP1 LOG2 POP JUMP JUMPDEST PUSH1 0x4 DUP3 PUSH1 0xFF AND LT PUSH2 0xFBD JUMPI PUSH1 0x40 MLOAD PUSH32 0x8C379A000000000000000000000000000000000000000000000000000000000 DUP2 MSTORE PUSH1 0x4 ADD PUSH2 0xFB4 SWAP1 PUSH2 0x25AE JUMP JUMPDEST PUSH1 0x40 MLOAD DUP1 SWAP2 SUB SWAP1 REVERT JUMPDEST PUSH1 0x1 PUSH1 0x0 DUP2 SLOAD DUP1 SWAP3 SWAP2 SWAP1 PUSH2 0xFD0 SWAP1 PUSH2 0x241C JUMP JUMPDEST SWAP2 SWAP1 POP SSTORE POP PUSH1 0x40 MLOAD DUP1 PUSH2 0x180 ADD PUSH1 0x40 MSTORE DUP1 CALLER PUSH20 0xFFFFFFFFFFFFFFFFFFFFFFFFFFFFFFFFFFFFFFFF AND DUP2 MSTORE PUSH1 0x20 ADD DUP11 DUP2 MSTORE PUSH1 0x20 ADD DUP10 DUP2 MSTORE PUSH1 0x20 ADD TIMESTAMP DUP2 MSTORE PUSH1 0x20 ADD DUP9 DUP2 MSTORE PUSH1 0x20 ADD DUP8 DUP2 MSTORE PUSH1 0x20 ADD DUP7 DUP2 MSTORE PUSH1 0x20 ADD DUP6 DUP2 MSTORE PUSH1 0x20 ADD DUP5 DUP2 MSTORE PUSH1 0x20 ADD DUP4 PUSH1 0xFF AND PUSH1 0x3 DUP2 GT ISZERO PUSH2 0x1043 JUMPI PUSH2 0x1042 PUSH2 0x19A5 JUMP JUMPDEST JUMPDEST PUSH1 0x3 DUP2 GT ISZERO PUSH2 0x1055 JUMPI PUSH2 0x1054 PUSH2 0x19A5 JUMP JUMPDEST JUMPDEST DUP2 MSTORE PUSH1 0x20 ADD PUSH1 0x0 ISZERO ISZERO DUP2 MSTORE PUSH1 0x20 ADD DUP3 DUP2 MSTORE POP PUSH1 0x0 DUP1 PUSH1 0x1 SLOAD DUP2 MSTORE PUSH1 0x20 ADD SWAP1 DUP2 MSTORE PUSH1 0x20 ADD PUSH1 0x0 KECCAK256 PUSH1 0x0 DUP3 ADD MLOAD DUP2 PUSH1 0x0 ADD PUSH1 0x0 PUSH2 0x100 EXP DUP2 SLOAD DUP2 PUSH20 0xFFFFFFFFFFFFFFFFFFFFFFFFFFFFFFFFFFFFFFFF MUL NOT AND SWAP1 DUP4 PUSH20 0xFFFFFFFFFFFFFFFFFFFFFFFFFFFFFFFFFFFFFFFF AND MUL OR SWAP1 SSTORE POP PUSH1 0x20 DUP3 ADD MLOAD DUP2 PUSH1 0x1 ADD SWAP1 DUP2 PUSH2 0x10D7 SWAP2 SWAP1 PUSH2 0x277A JUMP JUMPDEST POP PUSH1 0x40 DUP3 ADD MLOAD DUP2 PUSH1 0x2 ADD SWAP1 DUP2 PUSH2 0x10ED SWAP2 SWAP1 PUSH2 0x277A JUMP JUMPDEST POP PUSH1 0x60 DUP3 ADD MLOAD DUP2 PUSH1 0x3 ADD SSTORE PUSH1 0x80 DUP3 ADD MLOAD DUP2 PUSH1 0x4 ADD SWAP1 DUP2 PUSH2 0x110D SWAP2 SWAP1 PUSH2 0x277A JUMP JUMPDEST POP PUSH1 0xA0 DUP3 ADD MLOAD DUP2 PUSH1 0x5 ADD SWAP1 DUP2 PUSH2 0x1123 SWAP2 SWAP1 PUSH2 0x277A JUMP JUMPDEST POP PUSH1 0xC0 DUP3 ADD MLOAD DUP2 PUSH1 0x6 ADD SWAP1 DUP2 PUSH2 0x1139 SWAP2 SWAP1 PUSH2 0x277A JUMP JUMPDEST POP PUSH1 0xE0 DUP3 ADD MLOAD DUP2 PUSH1 0x7 ADD SWAP1 DUP2 PUSH2 0x114F SWAP2 SWAP1 PUSH2 0x277A JUMP JUMPDEST POP PUSH2 0x100 DUP3 ADD MLOAD DUP2 PUSH1 0x8 ADD SWAP1 DUP2 PUSH2 0x1166 SWAP2 SWAP1 PUSH2 0x277A JUMP JUMPDEST POP PUSH2 0x120 DUP3 ADD MLOAD DUP2 PUSH1 0x9 ADD PUSH1 0x0 PUSH2 0x100 EXP DUP2 SLOAD DUP2 PUSH1 0xFF MUL NOT AND SWAP1 DUP4 PUSH1 0x3 DUP2 GT ISZERO PUSH2 0x1193 JUMPI PUSH2 0x1192 PUSH2 0x19A5 JUMP JUMPDEST JUMPDEST MUL OR SWAP1 SSTORE POP PUSH2 0x140 DUP3 ADD MLOAD DUP2 PUSH1 0x9 ADD PUSH1 0x1 PUSH2 0x100 EXP DUP2 SLOAD DUP2 PUSH1 0xFF MUL NOT AND SWAP1 DUP4 ISZERO ISZERO MUL OR SWAP1 SSTORE POP PUSH2 0x160 DUP3 ADD MLOAD DUP2 PUSH1 0xA ADD SWAP1 DUP2 PUSH2 0x11CF SWAP2 SWAP1 PUSH2 0x277A JUMP JUMPDEST POP SWAP1 POP POP PUSH1 0x1 SLOAD PUSH32 0x3FCC12D6E16901B654C0F793A064CF0A289EB46683E2F65D5630CF1FEFF5722C CALLER DUP12 DUP12 TIMESTAMP DUP13 DUP13 DUP13 DUP13 DUP13 DUP13 PUSH1 0xFF AND PUSH1 0x3 DUP2 GT ISZERO PUSH2 0x1216 JUMPI PUSH2 0x1215 PUSH2 0x19A5 JUMP JUMPDEST JUMPDEST DUP13 PUSH1 0x40 MLOAD PUSH2 0x122E SWAP12 SWAP11 SWAP10 SWAP9 SWAP8 SWAP7 SWAP6 SWAP5 SWAP4 SWAP3 SWAP2 SWAP1 PUSH2 0x284C JUMP JUMPDEST PUSH1 0x40 MLOAD DUP1 SWAP2 SUB SWAP1 LOG2 POP POP POP POP POP POP POP POP POP JUMP JUMPDEST PUSH1 0x0 PUSH1 0x20 MSTORE DUP1 PUSH1 0x0 MSTORE PUSH1 0x40 PUSH1 0x0 KECCAK256 PUSH1 0x0 SWAP2 POP SWAP1 POP DUP1 PUSH1 0x0 ADD PUSH1 0x0 SWAP1 SLOAD SWAP1 PUSH2 0x100 EXP SWAP1 DIV PUSH20 0xFFFFFFFFFFFFFFFFFFFFFFFFFFFFFFFFFFFFFFFF AND SWAP1 DUP1 PUSH1 0x1 ADD DUP1 SLOAD PUSH2 0x128A SWAP1 PUSH2 0x2359 JUMP JUMPDEST DUP1 PUSH1 0x1F ADD PUSH1 0x20 DUP1 SWAP2 DIV MUL PUSH1 0x20 ADD PUSH1 0x40 MLOAD SWAP1 DUP2 ADD PUSH1 0x40 MSTORE DUP1 SWAP3 SWAP2 SWAP1 DUP2 DUP2 MSTORE PUSH1 0x20 ADD DUP3 DUP1 SLOAD PUSH2 0x12B6 SWAP1 PUSH2 0x2359 JUMP JUMPDEST DUP1 ISZERO PUSH2 0x1303 JUMPI DUP1 PUSH1 0x1F LT PUSH2 0x12D8 JUMPI PUSH2 0x100 DUP1 DUP4 SLOAD DIV MUL DUP4 MSTORE SWAP2 PUSH1 0x20 ADD SWAP2 PUSH2 0x1303 JUMP JUMPDEST DUP3 ADD SWAP2 SWAP1 PUSH1 0x0 MSTORE PUSH1 0x20 PUSH1 0x0 KECCAK256 SWAP1 JUMPDEST DUP2 SLOAD DUP2 MSTORE SWAP1 PUSH1 0x1 ADD SWAP1 PUSH1 0x20 ADD DUP1 DUP4 GT PUSH2 0x12E6 JUMPI DUP3 SWAP1 SUB PUSH1 0x1F AND DUP3 ADD SWAP2 JUMPDEST POP POP POP POP POP SWAP1 DUP1 PUSH1 0x2 ADD DUP1 SLOAD PUSH2 0x1318 SWAP1 PUSH2 0x2359 JUMP JUMPDEST DUP1 PUSH1 0x1F ADD PUSH1 0x20 DUP1 SWAP2 DIV MUL PUSH1 0x20 ADD PUSH1 0x40 MLOAD SWAP1 DUP2 ADD PUSH1 0x40 MSTORE DUP1 SWAP3 SWAP2 SWAP1 DUP2 DUP2 MSTORE PUSH1 0x20 ADD DUP3 DUP1 SLOAD PUSH2 0x1344 SWAP1 PUSH2 0x2359 JUMP JUMPDEST DUP1 ISZERO PUSH2 0x1391 JUMPI DUP1 PUSH1 0x1F LT PUSH2 0x1366 JUMPI PUSH2 0x100 DUP1 DUP4 SLOAD DIV MUL DUP4 MSTORE SWAP2 PUSH1 0x20 ADD SWAP2 PUSH2 0x1391 JUMP JUMPDEST DUP3 ADD SWAP2 SWAP1 PUSH1 0x0 MSTORE PUSH1 0x20 PUSH1 0x0 KECCAK256 SWAP1 JUMPDEST DUP2 SLOAD DUP2 MSTORE SWAP1 PUSH1 0x1 ADD SWAP1 PUSH1 0x20 ADD DUP1 DUP4 GT PUSH2 0x1374 JUMPI DUP3 SWAP1 SUB PUSH1 0x1F AND DUP3 ADD SWAP2 JUMPDEST POP POP POP POP POP SWAP1 DUP1 PUSH1 0x3 ADD SLOAD SWAP1 DUP1 PUSH1 0x4 ADD DUP1 SLOAD PUSH2 0x13AC SWAP1 PUSH2 0x2359 JUMP JUMPDEST DUP1 PUSH1 0x1F ADD PUSH1 0x20 DUP1 SWAP2 DIV MUL PUSH1 0x20 ADD PUSH1 0x40 MLOAD SWAP1 DUP2 ADD PUSH1 0x40 MSTORE DUP1 SWAP3 SWAP2 SWAP1 DUP2 DUP2 MSTORE PUSH1 0x20 ADD DUP3 DUP1 SLOAD PUSH2 0x13D8 SWAP1 PUSH2 0x2359 JUMP JUMPDEST DUP1 ISZERO PUSH2 0x1425 JUMPI DUP1 PUSH1 0x1F LT PUSH2 0x13FA JUMPI PUSH2 0x100 DUP1 DUP4 SLOAD DIV MUL DUP4 MSTORE SWAP2 PUSH1 0x20 ADD SWAP2 PUSH2 0x1425 JUMP JUMPDEST DUP3 ADD SWAP2 SWAP1 PUSH1 0x0 MSTORE PUSH1 0x20 PUSH1 0x0 KECCAK256 SWAP1 JUMPDEST DUP2 SLOAD DUP2 MSTORE SWAP1 PUSH1 0x1 ADD SWAP1 PUSH1 0x20 ADD DUP1 DUP4 GT PUSH2 0x1408 JUMPI DUP3 SWAP1 SUB PUSH1 0x1F AND DUP3 ADD SWAP2 JUMPDEST POP POP POP POP POP SWAP1 DUP1 PUSH1 0x5 ADD DUP1 SLOAD PUSH2 0x143A SWAP1 PUSH2 0x2359 JUMP JUMPDEST DUP1 PUSH1 0x1F ADD PUSH1 0x20 DUP1 SWAP2 DIV MUL PUSH1 0x20 ADD PUSH1 0x40 MLOAD SWAP1 DUP2 ADD PUSH1 0x40 MSTORE DUP1 SWAP3 SWAP2 SWAP1 DUP2 DUP2 MSTORE PUSH1 0x20 ADD DUP3 DUP1 SLOAD PUSH2 0x1466 SWAP1 PUSH2 0x2359 JUMP JUMPDEST DUP1 ISZERO PUSH2 0x14B3 JUMPI DUP1 PUSH1 0x1F LT PUSH2 0x1488 JUMPI PUSH2 0x100 DUP1 DUP4 SLOAD DIV MUL DUP4 MSTORE SWAP2 PUSH1 0x20 ADD SWAP2 PUSH2 0x14B3 JUMP JUMPDEST DUP3 ADD SWAP2 SWAP1 PUSH1 0x0 MSTORE PUSH1 0x20 PUSH1 0x0 KECCAK256 SWAP1 JUMPDEST DUP2 SLOAD DUP2 MSTORE SWAP1 PUSH1 0x1 ADD SWAP1 PUSH1 0x20 ADD DUP1 DUP4 GT PUSH2 0x1496 JUMPI DUP3 SWAP1 SUB PUSH1 0x1F AND DUP3 ADD SWAP2 JUMPDEST POP POP POP POP POP SWAP1 DUP1 PUSH1 0x6 ADD DUP1 SLOAD PUSH2 0x14C8 SWAP1 PUSH2 0x2359 JUMP JUMPDEST DUP1 PUSH1 0x1F ADD PUSH1 0x20 DUP1 SWAP2 DIV MUL PUSH1 0x20 ADD PUSH1 0x40 MLOAD SWAP1 DUP2 ADD PUSH1 0x40 MSTORE DUP1 SWAP3 SWAP2 SWAP1 DUP2 DUP2 MSTORE PUSH1 0x20 ADD DUP3 DUP1 SLOAD PUSH2 0x14F4 SWAP1 PUSH2 0x2359 JUMP JUMPDEST DUP1 ISZERO PUSH2 0x1541 JUMPI DUP1 PUSH1 0x1F LT PUSH2 0x1516 JUMPI PUSH2 0x100 DUP1 DUP4 SLOAD DIV MUL DUP4 MSTORE SWAP2 PUSH1 0x20 ADD SWAP2 PUSH2 0x1541 JUMP JUMPDEST DUP3 ADD SWAP2 SWAP1 PUSH1 0x0 MSTORE PUSH1 0x20 PUSH1 0x0 KECCAK256 SWAP1 JUMPDEST DUP2 SLOAD DUP2 MSTORE SWAP1 PUSH1 0x1 ADD SWAP1 PUSH1 0x20 ADD DUP1 DUP4 GT PUSH2 0x1524 JUMPI DUP3 SWAP1 SUB PUSH1 0x1F AND DUP3 ADD SWAP2 JUMPDEST POP POP POP POP POP SWAP1 DUP1 PUSH1 0x7 ADD DUP1 SLOAD PUSH2 0x1556 SWAP1 PUSH2 0x2359 JUMP JUMPDEST DUP1 PUSH1 0x1F ADD PUSH1 0x20 DUP1 SWAP2 DIV MUL PUSH1 0x20 ADD PUSH1 0x40 MLOAD SWAP1 DUP2 ADD PUSH1 0x40 MSTORE DUP1 SWAP3 SWAP2 SWAP1 DUP2 DUP2 MSTORE PUSH1 0x20 ADD DUP3 DUP1 SLOAD PUSH2 0x1582 SWAP1 PUSH2 0x2359 JUMP JUMPDEST DUP1 ISZERO PUSH2 0x15CF JUMPI DUP1 PUSH1 0x1F LT PUSH2 0x15A4 JUMPI PUSH2 0x100 DUP1 DUP4 SLOAD DIV MUL DUP4 MSTORE SWAP2 PUSH1 0x20 ADD SWAP2 PUSH2 0x15CF JUMP JUMPDEST DUP3 ADD SWAP2 SWAP1 PUSH1 0x0 MSTORE PUSH1 0x20 PUSH1 0x0 KECCAK256 SWAP1 JUMPDEST DUP2 SLOAD DUP2 MSTORE SWAP1 PUSH1 0x1 ADD SWAP1 PUSH1 0x20 ADD DUP1 DUP4 GT PUSH2 0x15B2 JUMPI DUP3 SWAP1 SUB PUSH1 0x1F AND DUP3 ADD SWAP2 JUMPDEST POP POP POP POP POP SWAP1 DUP1 PUSH1 0x8 ADD DUP1 SLOAD PUSH2 0x15E4 SWAP1 PUSH2 0x2359 JUMP JUMPDEST DUP1 PUSH1 0x1F ADD PUSH1 0x20 DUP1 SWAP2 DIV MUL PUSH1 0x20 ADD PUSH1 0x40 MLOAD SWAP1 DUP2 ADD PUSH1 0x40 MSTORE DUP1 SWAP3 SWAP2 SWAP1 DUP2 DUP2 MSTORE PUSH1 0x20 ADD DUP3 DUP1 SLOAD PUSH2 0x1610 SWAP1 PUSH2 0x2359 JUMP JUMPDEST DUP1 ISZERO PUSH2 0x165D JUMPI DUP1 PUSH1 0x1F LT PUSH2 0x1632 JUMPI PUSH2 0x100 DUP1 DUP4 SLOAD DIV MUL DUP4 MSTORE SWAP2 PUSH1 0x20 ADD SWAP2 PUSH2 0x165D JUMP JUMPDEST DUP3 ADD SWAP2 SWAP1 PUSH1 0x0 MSTORE PUSH1 0x20 PUSH1 0x0 KECCAK256 SWAP1 JUMPDEST DUP2 SLOAD DUP2 MSTORE SWAP1 PUSH1 0x1 ADD SWAP1 PUSH1 0x20 ADD DUP1 DUP4 GT PUSH2 0x1640 JUMPI DUP3 SWAP1 SUB PUSH1 0x1F AND DUP3 ADD SWAP2 JUMPDEST POP POP POP POP POP SWAP1 DUP1 PUSH1 0x9 ADD PUSH1 0x0 SWAP1 SLOAD SWAP1 PUSH2 0x100 EXP SWAP1 DIV PUSH1 0xFF AND SWAP1 DUP1 PUSH1 0x9 ADD PUSH1 0x1 SWAP1 SLOAD SWAP1 PUSH2 0x100 EXP SWAP1 DIV PUSH1 0xFF AND SWAP1 DUP1 PUSH1 0xA ADD DUP1 SLOAD PUSH2 0x1698 SWAP1 PUSH2 0x2359 JUMP JUMPDEST DUP1 PUSH1 0x1F ADD PUSH1 0x20 DUP1 SWAP2 DIV MUL PUSH1 0x20 ADD PUSH1 0x40 MLOAD SWAP1 DUP2 ADD PUSH1 0x40 MSTORE DUP1 SWAP3 SWAP2 SWAP1 DUP2 DUP2 MSTORE PUSH1 0x20 ADD DUP3 DUP1 SLOAD PUSH2 0x16C4 SWAP1 PUSH2 0x2359 JUMP JUMPDEST DUP1 ISZERO PUSH2 0x1711 JUMPI DUP1 PUSH1 0x1F LT PUSH2 0x16E6 JUMPI PUSH2 0x100 DUP1 DUP4 SLOAD DIV MUL DUP4 MSTORE SWAP2 PUSH1 0x20 ADD SWAP2 PUSH2 0x1711 JUMP JUMPDEST DUP3 ADD SWAP2 SWAP1 PUSH1 0x0 MSTORE PUSH1 0x20 PUSH1 0x0 KECCAK256 SWAP1 JUMPDEST DUP2 SLOAD DUP2 MSTORE SWAP1 PUSH1 0x1 ADD SWAP1 PUSH1 0x20 ADD DUP1 DUP4 GT PUSH2 0x16F4 JUMPI DUP3 SWAP1 SUB PUSH1 0x1F AND DUP3 ADD SWAP2 JUMPDEST POP POP POP POP POP SWAP1 POP DUP13 JUMP JUMPDEST PUSH1 0x60 PUSH1 0x0 PUSH1 0x1 SLOAD PUSH8 0xFFFFFFFFFFFFFFFF DUP2 GT ISZERO PUSH2 0x173B JUMPI PUSH2 0x173A PUSH2 0x1DED JUMP JUMPDEST JUMPDEST PUSH1 0x40 MLOAD SWAP1 DUP1 DUP3 MSTORE DUP1 PUSH1 0x20 MUL PUSH1 0x20 ADD DUP3 ADD PUSH1 0x40 MSTORE DUP1 ISZERO PUSH2 0x1769 JUMPI DUP2 PUSH1 0x20 ADD PUSH1 0x20 DUP3 MUL DUP1 CALLDATASIZE DUP4 CALLDATACOPY DUP1 DUP3 ADD SWAP2 POP POP SWAP1 POP JUMPDEST POP SWAP1 POP PUSH1 0x0 PUSH1 0x1 SWAP1 POP JUMPDEST PUSH1 0x1 SLOAD DUP2 GT PUSH2 0x17BB JUMPI DUP1 DUP3 PUSH1 0x1 DUP4 PUSH2 0x178B SWAP2 SWAP1 PUSH2 0x23B9 JUMP JUMPDEST DUP2 MLOAD DUP2 LT PUSH2 0x179C JUMPI PUSH2 0x179B PUSH2 0x23ED JUMP JUMPDEST JUMPDEST PUSH1 0x20 MUL PUSH1 0x20 ADD ADD DUP2 DUP2 MSTORE POP POP DUP1 DUP1 PUSH2 0x17B3 SWAP1 PUSH2 0x241C JUMP JUMPDEST SWAP2 POP POP PUSH2 0x1773 JUMP JUMPDEST POP DUP1 SWAP2 POP POP SWAP1 JUMP JUMPDEST PUSH1 0x40 MLOAD DUP1 PUSH2 0x180 ADD PUSH1 0x40 MSTORE DUP1 PUSH1 0x0 PUSH20 0xFFFFFFFFFFFFFFFFFFFFFFFFFFFFFFFFFFFFFFFF AND DUP2 MSTORE PUSH1 0x20 ADD PUSH1 0x60 DUP2 MSTORE PUSH1 0x20 ADD PUSH1 0x60 DUP2 MSTORE PUSH1 0x20 ADD PUSH1 0x0 DUP2 MSTORE PUSH1 0x20 ADD PUSH1 0x60 DUP2 MSTORE PUSH1 0x20 ADD PUSH1 0x60 DUP2 MSTORE PUSH1 0x20 ADD PUSH1 0x60 DUP2 MSTORE PUSH1 0x20 ADD PUSH1 0x60 DUP2 MSTORE PUSH1 0x20 ADD PUSH1 0x60 DUP2 MSTORE PUSH1 0x20 ADD PUSH1 0x0 PUSH1 0x3 DUP2 GT ISZERO PUSH2 0x1838 JUMPI PUSH2 0x1837 PUSH2 0x19A5 JUMP JUMPDEST JUMPDEST DUP2 MSTORE PUSH1 0x20 ADD PUSH1 0x0 ISZERO ISZERO DUP2 MSTORE PUSH1 0x20 ADD PUSH1 0x60 DUP2 MSTORE POP SWAP1 JUMP JUMPDEST PUSH1 0x0 PUSH1 0x40 MLOAD SWAP1 POP SWAP1 JUMP JUMPDEST PUSH1 0x0 DUP1 REVERT JUMPDEST PUSH1 0x0 DUP1 REVERT JUMPDEST PUSH1 0x0 DUP2 SWAP1 POP SWAP2 SWAP1 POP JUMP JUMPDEST PUSH2 0x1875 DUP2 PUSH2 0x1862 JUMP JUMPDEST DUP2 EQ PUSH2 0x1880 JUMPI PUSH1 0x0 DUP1 REVERT JUMPDEST POP JUMP JUMPDEST PUSH1 0x0 DUP2 CALLDATALOAD SWAP1 POP PUSH2 0x1892 DUP2 PUSH2 0x186C JUMP JUMPDEST SWAP3 SWAP2 POP POP JUMP JUMPDEST PUSH1 0x0 PUSH1 0x20 DUP3 DUP5 SUB SLT ISZERO PUSH2 0x18AE JUMPI PUSH2 0x18AD PUSH2 0x1858 JUMP JUMPDEST JUMPDEST PUSH1 0x0 PUSH2 0x18BC DUP5 DUP3 DUP6 ADD PUSH2 0x1883 JUMP JUMPDEST SWAP2 POP POP SWAP3 SWAP2 POP POP JUMP JUMPDEST PUSH1 0x0 PUSH20 0xFFFFFFFFFFFFFFFFFFFFFFFFFFFFFFFFFFFFFFFF DUP3 AND SWAP1 POP SWAP2 SWAP1 POP JUMP JUMPDEST PUSH1 0x0 PUSH2 0x18F0 DUP3 PUSH2 0x18C5 JUMP JUMPDEST SWAP1 POP SWAP2 SWAP1 POP JUMP JUMPDEST PUSH2 0x1900 DUP2 PUSH2 0x18E5 JUMP JUMPDEST DUP3 MSTORE POP POP JUMP JUMPDEST PUSH1 0x0 DUP2 MLOAD SWAP1 POP SWAP2 SWAP1 POP JUMP JUMPDEST PUSH1 0x0 DUP3 DUP3 MSTORE PUSH1 0x20 DUP3 ADD SWAP1 POP SWAP3 SWAP2 POP POP JUMP JUMPDEST PUSH1 0x0 JUMPDEST DUP4 DUP2 LT ISZERO PUSH2 0x1940 JUMPI DUP1 DUP3 ADD MLOAD DUP2 DUP5 ADD MSTORE PUSH1 0x20 DUP2 ADD SWAP1 POP PUSH2 0x1925 JUMP JUMPDEST PUSH1 0x0 DUP5 DUP5 ADD MSTORE POP POP POP POP JUMP JUMPDEST PUSH1 0x0 PUSH1 0x1F NOT PUSH1 0x1F DUP4 ADD AND SWAP1 POP SWAP2 SWAP1 POP JUMP JUMPDEST PUSH1 0x0 PUSH2 0x1968 DUP3 PUSH2 0x1906 JUMP JUMPDEST PUSH2 0x1972 DUP2 DUP6 PUSH2 0x1911 JUMP JUMPDEST SWAP4 POP PUSH2 0x1982 DUP2 DUP6 PUSH1 0x20 DUP7 ADD PUSH2 0x1922 JUMP JUMPDEST PUSH2 0x198B DUP2 PUSH2 0x194C JUMP JUMPDEST DUP5 ADD SWAP2 POP POP SWAP3 SWAP2 POP POP JUMP JUMPDEST PUSH2 0x199F DUP2 PUSH2 0x1862 JUMP JUMPDEST DUP3 MSTORE POP POP JUMP JUMPDEST PUSH32 0x4E487B7100000000000000000000000000000000000000000000000000000000 PUSH1 0x0 MSTORE PUSH1 0x21 PUSH1 0x4 MSTORE PUSH1 0x24 PUSH1 0x0 REVERT JUMPDEST PUSH1 0x4 DUP2 LT PUSH2 0x19E5 JUMPI PUSH2 0x19E4 PUSH2 0x19A5 JUMP JUMPDEST JUMPDEST POP JUMP JUMPDEST PUSH1 0x0 DUP2 SWAP1 POP PUSH2 0x19F6 DUP3 PUSH2 0x19D4 JUMP JUMPDEST SWAP2 SWAP1 POP JUMP JUMPDEST PUSH1 0x0 PUSH2 0x1A06 DUP3 PUSH2 0x19E8 JUMP JUMPDEST SWAP1 POP SWAP2 SWAP1 POP JUMP JUMPDEST PUSH2 0x1A16 DUP2 PUSH2 0x19FB JUMP JUMPDEST DUP3 MSTORE POP POP JUMP JUMPDEST PUSH1 0x0 DUP2 ISZERO ISZERO SWAP1 POP SWAP2 SWAP1 POP JUMP JUMPDEST PUSH2 0x1A31 DUP2 PUSH2 0x1A1C JUMP JUMPDEST DUP3 MSTORE POP POP JUMP JUMPDEST PUSH1 0x0 PUSH2 0x180 DUP3 ADD SWAP1 POP PUSH2 0x1A4D PUSH1 0x0 DUP4 ADD DUP16 PUSH2 0x18F7 JUMP JUMPDEST DUP2 DUP2 SUB PUSH1 0x20 DUP4 ADD MSTORE PUSH2 0x1A5F DUP2 DUP15 PUSH2 0x195D JUMP JUMPDEST SWAP1 POP DUP2 DUP2 SUB PUSH1 0x40 DUP4 ADD MSTORE PUSH2 0x1A73 DUP2 DUP14 PUSH2 0x195D JUMP JUMPDEST SWAP1 POP DUP2 DUP2 SUB PUSH1 0x60 DUP4 ADD MSTORE PUSH2 0x1A87 DUP2 DUP13 PUSH2 0x195D JUMP JUMPDEST SWAP1 POP PUSH2 0x1A96 PUSH1 0x80 DUP4 ADD DUP12 PUSH2 0x1996 JUMP JUMPDEST DUP2 DUP2 SUB PUSH1 0xA0 DUP4 ADD MSTORE PUSH2 0x1AA8 DUP2 DUP11 PUSH2 0x195D JUMP JUMPDEST SWAP1 POP DUP2 DUP2 SUB PUSH1 0xC0 DUP4 ADD MSTORE PUSH2 0x1ABC DUP2 DUP10 PUSH2 0x195D JUMP JUMPDEST SWAP1 POP DUP2 DUP2 SUB PUSH1 0xE0 DUP4 ADD MSTORE PUSH2 0x1AD0 DUP2 DUP9 PUSH2 0x195D JUMP JUMPDEST SWAP1 POP DUP2 DUP2 SUB PUSH2 0x100 DUP4 ADD MSTORE PUSH2 0x1AE5 DUP2 DUP8 PUSH2 0x195D JUMP JUMPDEST SWAP1 POP PUSH2 0x1AF5 PUSH2 0x120 DUP4 ADD DUP7 PUSH2 0x1A0D JUMP JUMPDEST PUSH2 0x1B03 PUSH2 0x140 DUP4 ADD DUP6 PUSH2 0x1A28 JUMP JUMPDEST DUP2 DUP2 SUB PUSH2 0x160 DUP4 ADD MSTORE PUSH2 0x1B16 DUP2 DUP5 PUSH2 0x195D JUMP JUMPDEST SWAP1 POP SWAP14 SWAP13 POP POP POP POP POP POP POP POP POP POP POP POP POP JUMP JUMPDEST PUSH1 0x0 DUP2 MLOAD SWAP1 POP SWAP2 SWAP1 POP JUMP JUMPDEST PUSH1 0x0 DUP3 DUP3 MSTORE PUSH1 0x20 DUP3 ADD SWAP1 POP SWAP3 SWAP2 POP POP JUMP JUMPDEST PUSH1 0x0 DUP2 SWAP1 POP PUSH1 0x20 DUP3 ADD SWAP1 POP SWAP2 SWAP1 POP JUMP JUMPDEST PUSH2 0x1B5E DUP2 PUSH2 0x18E5 JUMP JUMPDEST DUP3 MSTORE POP POP JUMP JUMPDEST PUSH1 0x0 DUP3 DUP3 MSTORE PUSH1 0x20 DUP3 ADD SWAP1 POP SWAP3 SWAP2 POP POP JUMP JUMPDEST PUSH1 0x0 PUSH2 0x1B80 DUP3 PUSH2 0x1906 JUMP JUMPDEST PUSH2 0x1B8A DUP2 DUP6 PUSH2 0x1B64 JUMP JUMPDEST SWAP4 POP PUSH2 0x1B9A DUP2 DUP6 PUSH1 0x20 DUP7 ADD PUSH2 0x1922 JUMP JUMPDEST PUSH2 0x1BA3 DUP2 PUSH2 0x194C JUMP JUMPDEST DUP5 ADD SWAP2 POP POP SWAP3 SWAP2 POP POP JUMP JUMPDEST PUSH2 0x1BB7 DUP2 PUSH2 0x1862 JUMP JUMPDEST DUP3 MSTORE POP POP JUMP JUMPDEST PUSH2 0x1BC6 DUP2 PUSH2 0x19FB JUMP JUMPDEST DUP3 MSTORE POP POP JUMP JUMPDEST PUSH2 0x1BD5 DUP2 PUSH2 0x1A1C JUMP JUMPDEST DUP3 MSTORE POP POP JUMP JUMPDEST PUSH1 0x0 PUSH2 0x180 DUP4 ADD PUSH1 0x0 DUP4 ADD MLOAD PUSH2 0x1BF4 PUSH1 0x0 DUP7 ADD DUP3 PUSH2 0x1B55 JUMP JUMPDEST POP PUSH1 0x20 DUP4 ADD MLOAD DUP5 DUP3 SUB PUSH1 0x20 DUP7 ADD MSTORE PUSH2 0x1C0C DUP3 DUP3 PUSH2 0x1B75 JUMP JUMPDEST SWAP2 POP POP PUSH1 0x40 DUP4 ADD MLOAD DUP5 DUP3 SUB PUSH1 0x40 DUP7 ADD MSTORE PUSH2 0x1C26 DUP3 DUP3 PUSH2 0x1B75 JUMP JUMPDEST SWAP2 POP POP PUSH1 0x60 DUP4 ADD MLOAD PUSH2 0x1C3B PUSH1 0x60 DUP7 ADD DUP3 PUSH2 0x1BAE JUMP JUMPDEST POP PUSH1 0x80 DUP4 ADD MLOAD DUP5 DUP3 SUB PUSH1 0x80 DUP7 ADD MSTORE PUSH2 0x1C53 DUP3 DUP3 PUSH2 0x1B75 JUMP JUMPDEST SWAP2 POP POP PUSH1 0xA0 DUP4 ADD MLOAD DUP5 DUP3 SUB PUSH1 0xA0 DUP7 ADD MSTORE PUSH2 0x1C6D DUP3 DUP3 PUSH2 0x1B75 JUMP JUMPDEST SWAP2 POP POP PUSH1 0xC0 DUP4 ADD MLOAD DUP5 DUP3 SUB PUSH1 0xC0 DUP7 ADD MSTORE PUSH2 0x1C87 DUP3 DUP3 PUSH2 0x1B75 JUMP JUMPDEST SWAP2 POP POP PUSH1 0xE0 DUP4 ADD MLOAD DUP5 DUP3 SUB PUSH1 0xE0 DUP7 ADD MSTORE PUSH2 0x1CA1 DUP3 DUP3 PUSH2 0x1B75 JUMP JUMPDEST SWAP2 POP POP PUSH2 0x100 DUP4 ADD MLOAD DUP5 DUP3 SUB PUSH2 0x100 DUP7 ADD MSTORE PUSH2 0x1CBD DUP3 DUP3 PUSH2 0x1B75 JUMP JUMPDEST SWAP2 POP POP PUSH2 0x120 DUP4 ADD MLOAD PUSH2 0x1CD4 PUSH2 0x120 DUP7 ADD DUP3 PUSH2 0x1BBD JUMP JUMPDEST POP PUSH2 0x140 DUP4 ADD MLOAD PUSH2 0x1CE9 PUSH2 0x140 DUP7 ADD DUP3 PUSH2 0x1BCC JUMP JUMPDEST POP PUSH2 0x160 DUP4 ADD MLOAD DUP5 DUP3 SUB PUSH2 0x160 DUP7 ADD MSTORE PUSH2 0x1D03 DUP3 DUP3 PUSH2 0x1B75 JUMP JUMPDEST SWAP2 POP POP DUP1 SWAP2 POP POP SWAP3 SWAP2 POP POP JUMP JUMPDEST PUSH1 0x0 PUSH2 0x1D1C DUP4 DUP4 PUSH2 0x1BDB JUMP JUMPDEST SWAP1 POP SWAP3 SWAP2 POP POP JUMP JUMPDEST PUSH1 0x0 PUSH1 0x20 DUP3 ADD SWAP1 POP SWAP2 SWAP1 POP JUMP JUMPDEST PUSH1 0x0 PUSH2 0x1D3C DUP3 PUSH2 0x1B29 JUMP JUMPDEST PUSH2 0x1D46 DUP2 DUP6 PUSH2 0x1B34 JUMP JUMPDEST SWAP4 POP DUP4 PUSH1 0x20 DUP3 MUL DUP6 ADD PUSH2 0x1D58 DUP6 PUSH2 0x1B45 JUMP JUMPDEST DUP1 PUSH1 0x0 JUMPDEST DUP6 DUP2 LT ISZERO PUSH2 0x1D94 JUMPI DUP5 DUP5 SUB DUP10 MSTORE DUP2 MLOAD PUSH2 0x1D75 DUP6 DUP3 PUSH2 0x1D10 JUMP JUMPDEST SWAP5 POP PUSH2 0x1D80 DUP4 PUSH2 0x1D24 JUMP JUMPDEST SWAP3 POP PUSH1 0x20 DUP11 ADD SWAP10 POP POP PUSH1 0x1 DUP2 ADD SWAP1 POP PUSH2 0x1D5C JUMP JUMPDEST POP DUP3 SWAP8 POP DUP8 SWAP6 POP POP POP POP POP POP SWAP3 SWAP2 POP POP JUMP JUMPDEST PUSH1 0x0 PUSH1 0x20 DUP3 ADD SWAP1 POP DUP2 DUP2 SUB PUSH1 0x0 DUP4 ADD MSTORE PUSH2 0x1DC0 DUP2 DUP5 PUSH2 0x1D31 JUMP JUMPDEST SWAP1 POP SWAP3 SWAP2 POP POP JUMP JUMPDEST PUSH1 0x0 PUSH1 0x20 DUP3 ADD SWAP1 POP PUSH2 0x1DDD PUSH1 0x0 DUP4 ADD DUP5 PUSH2 0x1996 JUMP JUMPDEST SWAP3 SWAP2 POP POP JUMP JUMPDEST PUSH1 0x0 DUP1 REVERT JUMPDEST PUSH1 0x0 DUP1 REVERT JUMPDEST PUSH32 0x4E487B7100000000000000000000000000000000000000000000000000000000 PUSH1 0x0 MSTORE PUSH1 0x41 PUSH1 0x4 MSTORE PUSH1 0x24 PUSH1 0x0 REVERT JUMPDEST PUSH2 0x1E25 DUP3 PUSH2 0x194C JUMP JUMPDEST DUP2 ADD DUP2 DUP2 LT PUSH8 0xFFFFFFFFFFFFFFFF DUP3 GT OR ISZERO PUSH2 0x1E44 JUMPI PUSH2 0x1E43 PUSH2 0x1DED JUMP JUMPDEST JUMPDEST DUP1 PUSH1 0x40 MSTORE POP POP POP JUMP JUMPDEST PUSH1 0x0 PUSH2 0x1E57 PUSH2 0x184E JUMP JUMPDEST SWAP1 POP PUSH2 0x1E63 DUP3 DUP3 PUSH2 0x1E1C JUMP JUMPDEST SWAP2 SWAP1 POP JUMP JUMPDEST PUSH1 0x0 PUSH8 0xFFFFFFFFFFFFFFFF DUP3 GT ISZERO PUSH2 0x1E83 JUMPI PUSH2 0x1E82 PUSH2 0x1DED JUMP JUMPDEST JUMPDEST PUSH2 0x1E8C DUP3 PUSH2 0x194C JUMP JUMPDEST SWAP1 POP PUSH1 0x20 DUP2 ADD SWAP1 POP SWAP2 SWAP1 POP JUMP JUMPDEST DUP3 DUP2 DUP4 CALLDATACOPY PUSH1 0x0 DUP4 DUP4 ADD MSTORE POP POP POP JUMP JUMPDEST PUSH1 0x0 PUSH2 0x1EBB PUSH2 0x1EB6 DUP5 PUSH2 0x1E68 JUMP JUMPDEST PUSH2 0x1E4D JUMP JUMPDEST SWAP1 POP DUP3 DUP2 MSTORE PUSH1 0x20 DUP2 ADD DUP5 DUP5 DUP5 ADD GT ISZERO PUSH2 0x1ED7 JUMPI PUSH2 0x1ED6 PUSH2 0x1DE8 JUMP JUMPDEST JUMPDEST PUSH2 0x1EE2 DUP5 DUP3 DUP6 PUSH2 0x1E99 JUMP JUMPDEST POP SWAP4 SWAP3 POP POP POP JUMP JUMPDEST PUSH1 0x0 DUP3 PUSH1 0x1F DUP4 ADD SLT PUSH2 0x1EFF JUMPI PUSH2 0x1EFE PUSH2 0x1DE3 JUMP JUMPDEST JUMPDEST DUP2 CALLDATALOAD PUSH2 0x1F0F DUP5 DUP3 PUSH1 0x20 DUP7 ADD PUSH2 0x1EA8 JUMP JUMPDEST SWAP2 POP POP SWAP3 SWAP2 POP POP JUMP JUMPDEST PUSH1 0x0 PUSH1 0xFF DUP3 AND SWAP1 POP SWAP2 SWAP1 POP JUMP JUMPDEST PUSH2 0x1F2E DUP2 PUSH2 0x1F18 JUMP JUMPDEST DUP2 EQ PUSH2 0x1F39 JUMPI PUSH1 0x0 DUP1 REVERT JUMPDEST POP JUMP JUMPDEST PUSH1 0x0 DUP2 CALLDATALOAD SWAP1 POP PUSH2 0x1F4B DUP2 PUSH2 0x1F25 JUMP JUMPDEST SWAP3 SWAP2 POP POP JUMP JUMPDEST PUSH1 0x0 DUP1 PUSH1 0x0 DUP1 PUSH1 0x0 DUP1 PUSH1 0x0 DUP1 PUSH1 0x0 PUSH2 0x120 DUP11 DUP13 SUB SLT ISZERO PUSH2 0x1F74 JUMPI PUSH2 0x1F73 PUSH2 0x1858 JUMP JUMPDEST JUMPDEST PUSH1 0x0 DUP11 ADD CALLDATALOAD PUSH8 0xFFFFFFFFFFFFFFFF DUP2 GT ISZERO PUSH2 0x1F92 JUMPI PUSH2 0x1F91 PUSH2 0x185D JUMP JUMPDEST JUMPDEST PUSH2 0x1F9E DUP13 DUP3 DUP14 ADD PUSH2 0x1EEA JUMP JUMPDEST SWAP10 POP POP PUSH1 0x20 DUP11 ADD CALLDATALOAD PUSH8 0xFFFFFFFFFFFFFFFF DUP2 GT ISZERO PUSH2 0x1FBF JUMPI PUSH2 0x1FBE PUSH2 0x185D JUMP JUMPDEST JUMPDEST PUSH2 0x1FCB DUP13 DUP3 DUP14 ADD PUSH2 0x1EEA JUMP JUMPDEST SWAP9 POP POP PUSH1 0x40 DUP11 ADD CALLDATALOAD PUSH8 0xFFFFFFFFFFFFFFFF DUP2 GT ISZERO PUSH2 0x1FEC JUMPI PUSH2 0x1FEB PUSH2 0x185D JUMP JUMPDEST JUMPDEST PUSH2 0x1FF8 DUP13 DUP3 DUP14 ADD PUSH2 0x1EEA JUMP JUMPDEST SWAP8 POP POP PUSH1 0x60 DUP11 ADD CALLDATALOAD PUSH8 0xFFFFFFFFFFFFFFFF DUP2 GT ISZERO PUSH2 0x2019 JUMPI PUSH2 0x2018 PUSH2 0x185D JUMP JUMPDEST JUMPDEST PUSH2 0x2025 DUP13 DUP3 DUP14 ADD PUSH2 0x1EEA JUMP JUMPDEST SWAP7 POP POP PUSH1 0x80 DUP11 ADD CALLDATALOAD PUSH8 0xFFFFFFFFFFFFFFFF DUP2 GT ISZERO PUSH2 0x2046 JUMPI PUSH2 0x2045 PUSH2 0x185D JUMP JUMPDEST JUMPDEST PUSH2 0x2052 DUP13 DUP3 DUP14 ADD PUSH2 0x1EEA JUMP JUMPDEST SWAP6 POP POP PUSH1 0xA0 DUP11 ADD CALLDATALOAD PUSH8 0xFFFFFFFFFFFFFFFF DUP2 GT ISZERO PUSH2 0x2073 JUMPI PUSH2 0x2072 PUSH2 0x185D JUMP JUMPDEST JUMPDEST PUSH2 0x207F DUP13 DUP3 DUP14 ADD PUSH2 0x1EEA JUMP JUMPDEST SWAP5 POP POP PUSH1 0xC0 DUP11 ADD CALLDATALOAD PUSH8 0xFFFFFFFFFFFFFFFF DUP2 GT ISZERO PUSH2 0x20A0 JUMPI PUSH2 0x209F PUSH2 0x185D JUMP JUMPDEST JUMPDEST PUSH2 0x20AC DUP13 DUP3 DUP14 ADD PUSH2 0x1EEA JUMP JUMPDEST SWAP4 POP POP PUSH1 0xE0 PUSH2 0x20BD DUP13 DUP3 DUP14 ADD PUSH2 0x1F3C JUMP JUMPDEST SWAP3 POP POP PUSH2 0x100 DUP11 ADD CALLDATALOAD PUSH8 0xFFFFFFFFFFFFFFFF DUP2 GT ISZERO PUSH2 0x20DF JUMPI PUSH2 0x20DE PUSH2 0x185D JUMP JUMPDEST JUMPDEST PUSH2 0x20EB DUP13 DUP3 DUP14 ADD PUSH2 0x1EEA JUMP JUMPDEST SWAP2 POP POP SWAP3 SWAP6 SWAP9 POP SWAP3 SWAP6 SWAP9 POP SWAP3 SWAP6 SWAP9 JUMP JUMPDEST PUSH1 0x0 PUSH2 0x180 DUP3 ADD SWAP1 POP PUSH2 0x2111 PUSH1 0x0 DUP4 ADD DUP16 PUSH2 0x18F7 JUMP JUMPDEST DUP2 DUP2 SUB PUSH1 0x20 DUP4 ADD MSTORE PUSH2 0x2123 DUP2 DUP15 PUSH2 0x195D JUMP JUMPDEST SWAP1 POP DUP2 DUP2 SUB PUSH1 0x40 DUP4 ADD MSTORE PUSH2 0x2137 DUP2 DUP14 PUSH2 0x195D JUMP JUMPDEST SWAP1 POP PUSH2 0x2146 PUSH1 0x60 DUP4 ADD DUP13 PUSH2 0x1996 JUMP JUMPDEST DUP2 DUP2 SUB PUSH1 0x80 DUP4 ADD MSTORE PUSH2 0x2158 DUP2 DUP12 PUSH2 0x195D JUMP JUMPDEST SWAP1 POP DUP2 DUP2 SUB PUSH1 0xA0 DUP4 ADD MSTORE PUSH2 0x216C DUP2 DUP11 PUSH2 0x195D JUMP JUMPDEST SWAP1 POP DUP2 DUP2 SUB PUSH1 0xC0 DUP4 ADD MSTORE PUSH2 0x2180 DUP2 DUP10 PUSH2 0x195D JUMP JUMPDEST SWAP1 POP DUP2 DUP2 SUB PUSH1 0xE0 DUP4 ADD MSTORE PUSH2 0x2194 DUP2 DUP9 PUSH2 0x195D JUMP JUMPDEST SWAP1 POP DUP2 DUP2 SUB PUSH2 0x100 DUP4 ADD MSTORE PUSH2 0x21A9 DUP2 DUP8 PUSH2 0x195D JUMP JUMPDEST SWAP1 POP PUSH2 0x21B9 PUSH2 0x120 DUP4 ADD DUP7 PUSH2 0x1A0D JUMP JUMPDEST PUSH2 0x21C7 PUSH2 0x140 DUP4 ADD DUP6 PUSH2 0x1A28 JUMP JUMPDEST DUP2 DUP2 SUB PUSH2 0x160 DUP4 ADD MSTORE PUSH2 0x21DA DUP2 DUP5 PUSH2 0x195D JUMP JUMPDEST SWAP1 POP SWAP14 SWAP13 POP POP POP POP POP POP POP POP POP POP POP POP POP JUMP JUMPDEST PUSH1 0x0 DUP2 MLOAD SWAP1 POP SWAP2 SWAP1 POP JUMP JUMPDEST PUSH1 0x0 DUP3 DUP3 MSTORE PUSH1 0x20 DUP3 ADD SWAP1 POP SWAP3 SWAP2 POP POP JUMP JUMPDEST PUSH1 0x0 DUP2 SWAP1 POP PUSH1 0x20 DUP3 ADD SWAP1 POP SWAP2 SWAP1 POP JUMP JUMPDEST PUSH1 0x0 PUSH2 0x2225 DUP4 DUP4 PUSH2 0x1BAE JUMP JUMPDEST PUSH1 0x20 DUP4 ADD SWAP1 POP SWAP3 SWAP2 POP POP JUMP JUMPDEST PUSH1 0x0 PUSH1 0x20 DUP3 ADD SWAP1 POP SWAP2 SWAP1 POP JUMP JUMPDEST PUSH1 0x0 PUSH2 0x2249 DUP3 PUSH2 0x21ED JUMP JUMPDEST PUSH2 0x2253 DUP2 DUP6 PUSH2 0x21F8 JUMP JUMPDEST SWAP4 POP PUSH2 0x225E DUP4 PUSH2 0x2209 JUMP JUMPDEST DUP1 PUSH1 0x0 JUMPDEST DUP4 DUP2 LT ISZERO PUSH2 0x228F JUMPI DUP2 MLOAD PUSH2 0x2276 DUP9 DUP3 PUSH2 0x2219 JUMP JUMPDEST SWAP8 POP PUSH2 0x2281 DUP4 PUSH2 0x2231 JUMP JUMPDEST SWAP3 POP POP PUSH1 0x1 DUP2 ADD SWAP1 POP PUSH2 0x2262 JUMP JUMPDEST POP DUP6 SWAP4 POP POP POP POP SWAP3 SWAP2 POP POP JUMP JUMPDEST PUSH1 0x0 PUSH1 0x20 DUP3 ADD SWAP1 POP DUP2 DUP2 SUB PUSH1 0x0 DUP4 ADD MSTORE PUSH2 0x22B6 DUP2 DUP5 PUSH2 0x223E JUMP JUMPDEST SWAP1 POP SWAP3 SWAP2 POP POP JUMP JUMPDEST PUSH32 0x56696F6C6174696F6E20494420646F6573206E6F742065786973740000000000 PUSH1 0x0 DUP3 ADD MSTORE POP JUMP JUMPDEST PUSH1 0x0 PUSH2 0x22F4 PUSH1 0x1B DUP4 PUSH2 0x1911 JUMP JUMPDEST SWAP2 POP PUSH2 0x22FF DUP3 PUSH2 0x22BE JUMP JUMPDEST PUSH1 0x20 DUP3 ADD SWAP1 POP SWAP2 SWAP1 POP JUMP JUMPDEST PUSH1 0x0 PUSH1 0x20 DUP3 ADD SWAP1 POP DUP2 DUP2 SUB PUSH1 0x0 DUP4 ADD MSTORE PUSH2 0x2323 DUP2 PUSH2 0x22E7 JUMP JUMPDEST SWAP1 POP SWAP2 SWAP1 POP JUMP JUMPDEST PUSH32 0x4E487B7100000000000000000000000000000000000000000000000000000000 PUSH1 0x0 MSTORE PUSH1 0x22 PUSH1 0x4 MSTORE PUSH1 0x24 PUSH1 0x0 REVERT JUMPDEST PUSH1 0x0 PUSH1 0x2 DUP3 DIV SWAP1 POP PUSH1 0x1 DUP3 AND DUP1 PUSH2 0x2371 JUMPI PUSH1 0x7F DUP3 AND SWAP2 POP JUMPDEST PUSH1 0x20 DUP3 LT DUP2 SUB PUSH2 0x2384 JUMPI PUSH2 0x2383 PUSH2 0x232A JUMP JUMPDEST JUMPDEST POP SWAP2 SWAP1 POP JUMP JUMPDEST PUSH32 0x4E487B7100000000000000000000000000000000000000000000000000000000 PUSH1 0x0 MSTORE PUSH1 0x11 PUSH1 0x4 MSTORE PUSH1 0x24 PUSH1 0x0 REVERT JUMPDEST PUSH1 0x0 PUSH2 0x23C4 DUP3 PUSH2 0x1862 JUMP JUMPDEST SWAP2 POP PUSH2 0x23CF DUP4 PUSH2 0x1862 JUMP JUMPDEST SWAP3 POP DUP3 DUP3 SUB SWAP1 POP DUP2 DUP2 GT ISZERO PUSH2 0x23E7 JUMPI PUSH2 0x23E6 PUSH2 0x238A JUMP JUMPDEST JUMPDEST SWAP3 SWAP2 POP POP JUMP JUMPDEST PUSH32 0x4E487B7100000000000000000000000000000000000000000000000000000000 PUSH1 0x0 MSTORE PUSH1 0x32 PUSH1 0x4 MSTORE PUSH1 0x24 PUSH1 0x0 REVERT JUMPDEST PUSH1 0x0 PUSH2 0x2427 DUP3 PUSH2 0x1862 JUMP JUMPDEST SWAP2 POP PUSH32 0xFFFFFFFFFFFFFFFFFFFFFFFFFFFFFFFFFFFFFFFFFFFFFFFFFFFFFFFFFFFFFFFF DUP3 SUB PUSH2 0x2459 JUMPI PUSH2 0x2458 PUSH2 0x238A JUMP JUMPDEST JUMPDEST PUSH1 0x1 DUP3 ADD SWAP1 POP SWAP2 SWAP1 POP JUMP JUMPDEST PUSH32 0x4F6E6C792074686520636F6D706C61696E616E742063616E207265736F6C7665 PUSH1 0x0 DUP3 ADD MSTORE PUSH32 0x207468652076696F6C6174696F6E000000000000000000000000000000000000 PUSH1 0x20 DUP3 ADD MSTORE POP JUMP JUMPDEST PUSH1 0x0 PUSH2 0x24C0 PUSH1 0x2E DUP4 PUSH2 0x1911 JUMP JUMPDEST SWAP2 POP PUSH2 0x24CB DUP3 PUSH2 0x2464 JUMP JUMPDEST PUSH1 0x40 DUP3 ADD SWAP1 POP SWAP2 SWAP1 POP JUMP JUMPDEST PUSH1 0x0 PUSH1 0x20 DUP3 ADD SWAP1 POP DUP2 DUP2 SUB PUSH1 0x0 DUP4 ADD MSTORE PUSH2 0x24EF DUP2 PUSH2 0x24B3 JUMP JUMPDEST SWAP1 POP SWAP2 SWAP1 POP JUMP JUMPDEST PUSH32 0x56696F6C6174696F6E20697320616C7265616479207265736F6C766564000000 PUSH1 0x0 DUP3 ADD MSTORE POP JUMP JUMPDEST PUSH1 0x0 PUSH2 0x252C PUSH1 0x1D DUP4 PUSH2 0x1911 JUMP JUMPDEST SWAP2 POP PUSH2 0x2537 DUP3 PUSH2 0x24F6 JUMP JUMPDEST PUSH1 0x20 DUP3 ADD SWAP1 POP SWAP2 SWAP1 POP JUMP JUMPDEST PUSH1 0x0 PUSH1 0x20 DUP3 ADD SWAP1 POP DUP2 DUP2 SUB PUSH1 0x0 DUP4 ADD MSTORE PUSH2 0x255B DUP2 PUSH2 0x251F JUMP JUMPDEST SWAP1 POP SWAP2 SWAP1 POP JUMP JUMPDEST PUSH32 0x496E76616C69642076696F6C6174696F6E207479706500000000000000000000 PUSH1 0x0 DUP3 ADD MSTORE POP JUMP JUMPDEST PUSH1 0x0 PUSH2 0x2598 PUSH1 0x16 DUP4 PUSH2 0x1911 JUMP JUMPDEST SWAP2 POP PUSH2 0x25A3 DUP3 PUSH2 0x2562 JUMP JUMPDEST PUSH1 0x20 DUP3 ADD SWAP1 POP SWAP2 SWAP1 POP JUMP JUMPDEST PUSH1 0x0 PUSH1 0x20 DUP3 ADD SWAP1 POP DUP2 DUP2 SUB PUSH1 0x0 DUP4 ADD MSTORE PUSH2 0x25C7 DUP2 PUSH2 0x258B JUMP JUMPDEST SWAP1 POP SWAP2 SWAP1 POP JUMP JUMPDEST PUSH1 0x0 DUP2 SWAP1 POP DUP2 PUSH1 0x0 MSTORE PUSH1 0x20 PUSH1 0x0 KECCAK256 SWAP1 POP SWAP2 SWAP1 POP JUMP JUMPDEST PUSH1 0x0 PUSH1 0x20 PUSH1 0x1F DUP4 ADD DIV SWAP1 POP SWAP2 SWAP1 POP JUMP JUMPDEST PUSH1 0x0 DUP3 DUP3 SHL SWAP1 POP SWAP3 SWAP2 POP POP JUMP JUMPDEST PUSH1 0x0 PUSH1 0x8 DUP4 MUL PUSH2 0x2630 PUSH32 0xFFFFFFFFFFFFFFFFFFFFFFFFFFFFFFFFFFFFFFFFFFFFFFFFFFFFFFFFFFFFFFFF DUP3 PUSH2 0x25F3 JUMP JUMPDEST PUSH2 0x263A DUP7 DUP4 PUSH2 0x25F3 JUMP JUMPDEST SWAP6 POP DUP1 NOT DUP5 AND SWAP4 POP DUP1 DUP7 AND DUP5 OR SWAP3 POP POP POP SWAP4 SWAP3 POP POP POP JUMP JUMPDEST PUSH1 0x0 DUP2 SWAP1 POP SWAP2 SWAP1 POP JUMP JUMPDEST PUSH1 0x0 PUSH2 0x2677 PUSH2 0x2672 PUSH2 0x266D DUP5 PUSH2 0x1862 JUMP JUMPDEST PUSH2 0x2652 JUMP JUMPDEST PUSH2 0x1862 JUMP JUMPDEST SWAP1 POP SWAP2 SWAP1 POP JUMP JUMPDEST PUSH1 0x0 DUP2 SWAP1 POP SWAP2 SWAP1 POP JUMP JUMPDEST PUSH2 0x2691 DUP4 PUSH2 0x265C JUMP JUMPDEST PUSH2 0x26A5 PUSH2 0x269D DUP3 PUSH2 0x267E JUMP JUMPDEST DUP5 DUP5 SLOAD PUSH2 0x2600 JUMP JUMPDEST DUP3 SSTORE POP POP POP POP JUMP JUMPDEST PUSH1 0x0 SWAP1 JUMP JUMPDEST PUSH2 0x26BA PUSH2 0x26AD JUMP JUMPDEST PUSH2 0x26C5 DUP2 DUP5 DUP5 PUSH2 0x2688 JUMP JUMPDEST POP POP POP JUMP JUMPDEST JUMPDEST DUP2 DUP2 LT ISZERO PUSH2 0x26E9 JUMPI PUSH2 0x26DE PUSH1 0x0 DUP3 PUSH2 0x26B2 JUMP JUMPDEST PUSH1 0x1 DUP2 ADD SWAP1 POP PUSH2 0x26CB JUMP JUMPDEST POP POP JUMP JUMPDEST PUSH1 0x1F DUP3 GT ISZERO PUSH2 0x272E JUMPI PUSH2 0x26FF DUP2 PUSH2 0x25CE JUMP JUMPDEST PUSH2 0x2708 DUP5 PUSH2 0x25E3 JUMP JUMPDEST DUP2 ADD PUSH1 0x20 DUP6 LT ISZERO PUSH2 0x2717 JUMPI DUP2 SWAP1 POP JUMPDEST PUSH2 0x272B PUSH2 0x2723 DUP6 PUSH2 0x25E3 JUMP JUMPDEST DUP4 ADD DUP3 PUSH2 0x26CA JUMP JUMPDEST POP POP JUMPDEST POP POP POP JUMP JUMPDEST PUSH1 0x0 DUP3 DUP3 SHR SWAP1 POP SWAP3 SWAP2 POP POP JUMP JUMPDEST PUSH1 0x0 PUSH2 0x2751 PUSH1 0x0 NOT DUP5 PUSH1 0x8 MUL PUSH2 0x2733 JUMP JUMPDEST NOT DUP1 DUP4 AND SWAP2 POP POP SWAP3 SWAP2 POP POP JUMP JUMPDEST PUSH1 0x0 PUSH2 0x276A DUP4 DUP4 PUSH2 0x2740 JUMP JUMPDEST SWAP2 POP DUP3 PUSH1 0x2 MUL DUP3 OR SWAP1 POP SWAP3 SWAP2 POP POP JUMP JUMPDEST PUSH2 0x2783 DUP3 PUSH2 0x1906 JUMP JUMPDEST PUSH8 0xFFFFFFFFFFFFFFFF DUP2 GT ISZERO PUSH2 0x279C JUMPI PUSH2 0x279B PUSH2 0x1DED JUMP JUMPDEST JUMPDEST PUSH2 0x27A6 DUP3 SLOAD PUSH2 0x2359 JUMP JUMPDEST PUSH2 0x27B1 DUP3 DUP3 DUP6 PUSH2 0x26ED JUMP JUMPDEST PUSH1 0x0 PUSH1 0x20 SWAP1 POP PUSH1 0x1F DUP4 GT PUSH1 0x1 DUP2 EQ PUSH2 0x27E4 JUMPI PUSH1 0x0 DUP5 ISZERO PUSH2 0x27D2 JUMPI DUP3 DUP8 ADD MLOAD SWAP1 POP JUMPDEST PUSH2 0x27DC DUP6 DUP3 PUSH2 0x275E JUMP JUMPDEST DUP7 SSTORE POP PUSH2 0x2844 JUMP JUMPDEST PUSH1 0x1F NOT DUP5 AND PUSH2 0x27F2 DUP7 PUSH2 0x25CE JUMP JUMPDEST PUSH1 0x0 JUMPDEST DUP3 DUP2 LT ISZERO PUSH2 0x281A JUMPI DUP5 DUP10 ADD MLOAD DUP3 SSTORE PUSH1 0x1 DUP3 ADD SWAP2 POP PUSH1 0x20 DUP6 ADD SWAP5 POP PUSH1 0x20 DUP2 ADD SWAP1 POP PUSH2 0x27F5 JUMP JUMPDEST DUP7 DUP4 LT ISZERO PUSH2 0x2837 JUMPI DUP5 DUP10 ADD MLOAD PUSH2 0x2833 PUSH1 0x1F DUP10 AND DUP3 PUSH2 0x2740 JUMP JUMPDEST DUP4 SSTORE POP JUMPDEST PUSH1 0x1 PUSH1 0x2 DUP9 MUL ADD DUP9 SSTORE POP POP POP JUMPDEST POP POP POP POP POP POP JUMP JUMPDEST PUSH1 0x0 PUSH2 0x160 DUP3 ADD SWAP1 POP PUSH2 0x2862 PUSH1 0x0 DUP4 ADD DUP15 PUSH2 0x18F7 JUMP JUMPDEST DUP2 DUP2 SUB PUSH1 0x20 DUP4 ADD MSTORE PUSH2 0x2874 DUP2 DUP14 PUSH2 0x195D JUMP JUMPDEST SWAP1 POP DUP2 DUP2 SUB PUSH1 0x40 DUP4 ADD MSTORE PUSH2 0x2888 DUP2 DUP13 PUSH2 0x195D JUMP JUMPDEST SWAP1 POP PUSH2 0x2897 PUSH1 0x60 DUP4 ADD DUP12 PUSH2 0x1996 JUMP JUMPDEST DUP2 DUP2 SUB PUSH1 0x80 DUP4 ADD MSTORE PUSH2 0x28A9 DUP2 DUP11 PUSH2 0x195D JUMP JUMPDEST SWAP1 POP DUP2 DUP2 SUB PUSH1 0xA0 DUP4 ADD MSTORE PUSH2 0x28BD DUP2 DUP10 PUSH2 0x195D JUMP JUMPDEST SWAP1 POP DUP2 DUP2 SUB PUSH1 0xC0 DUP4 ADD MSTORE PUSH2 0x28D1 DUP2 DUP9 PUSH2 0x195D JUMP JUMPDEST SWAP1 POP DUP2 DUP2 SUB PUSH1 0xE0 DUP4 ADD MSTORE PUSH2 0x28E5 DUP2 DUP8 PUSH2 0x195D JUMP JUMPDEST SWAP1 POP DUP2 DUP2 SUB PUSH2 0x100 DUP4 ADD MSTORE PUSH2 0x28FA DUP2 DUP7 PUSH2 0x195D JUMP JUMPDEST SWAP1 POP PUSH2 0x290A PUSH2 0x120 DUP4 ADD DUP6 PUSH2 0x1A0D JUMP JUMPDEST DUP2 DUP2 SUB PUSH2 0x140 DUP4 ADD MSTORE PUSH2 0x291D DUP2 DUP5 PUSH2 0x195D JUMP JUMPDEST SWAP1 POP SWAP13 SWAP12 POP POP POP POP POP POP POP POP POP POP POP POP JUMP INVALID LOG2 PUSH5 0x6970667358 0x22 SLT KECCAK256 0xE9 0xC4 0xB3 JUMPI 0x5F LOG4 JUMPI PUSH1 0x51 0xAB ADD 0xB0 0x24 MULMOD 0x5F 0x22 0xBF SLT 0xDF PUSH31 0xA048766FE4277A2DCF0F978B64736F6C634300081100330000000000000000 "},"methodIdentifiers":{"getAllComplaints()":"0dac9539","getAllViolationIds()":"f2475995","getViolationDetails(uint256)":"0a86a399","reportViolation(string,string,string,string,string,string,string,uint8,string)":"ab5961ee","resolveViolation(uint256)":"a20a2c00","violationCount()":"52388941","violations(uint256)":"b995bb95"}}}}}