{
  "_format": "hh-sol-artifact-1",
  "contractName": "complain1",
  "sourceName": "contracts/complain.sol",
  "abi": [
    {
      "inputs": [],
      "stateMutability": "nonpayable",
      "type": "constructor"
    },
    {
      "anonymous": false,
      "inputs": [
        {
          "indexed": true,
          "internalType": "uint256",
          "name": "id",
          "type": "uint256"
        },
        {
          "indexed": false,
          "internalType": "address",
          "name": "complainant",
          "type": "address"
        },
        {
          "indexed": false,
          "internalType": "uint256",
          "name": "timestamp",
          "type": "uint256"
        },
        {
          "indexed": false,
          "internalType": "string",
          "name": "location",
          "type": "string"
        },
        {
          "indexed": false,
          "internalType": "enum complain1.ViolationType",
          "name": "violationType",
          "type": "uint8"
        }
      ],
      "name": "ViolationReported",
      "type": "event"
    },
    {
      "anonymous": false,
      "inputs": [
        {
          "indexed": true,
          "internalType": "uint256",
          "name": "id",
          "type": "uint256"
        }
      ],
      "name": "ViolationResolved",
      "type": "event"
    },
    {
      "inputs": [],
      "name": "getAllViolationIds",
      "outputs": [
        {
          "internalType": "uint256[]",
          "name": "",
          "type": "uint256[]"
        }
      ],
      "stateMutability": "view",
      "type": "function"
    },
    {
      "inputs": [
        {
          "internalType": "uint256",
          "name": "_id",
          "type": "uint256"
        }
      ],
      "name": "getViolationDetails",
      "outputs": [
        {
          "internalType": "address",
          "name": "",
          "type": "address"
        },
        {
          "internalType": "uint256",
          "name": "",
          "type": "uint256"
        },
        {
          "internalType": "string",
          "name": "",
          "type": "string"
        },
        {
          "internalType": "enum complain1.ViolationType",
          "name": "",
          "type": "uint8"
        },
        {
          "internalType": "bool",
          "name": "",
          "type": "bool"
        }
      ],
      "stateMutability": "view",
      "type": "function"
    },
    {
      "inputs": [
        {
          "internalType": "string",
          "name": "_location",
          "type": "string"
        },
        {
          "internalType": "uint8",
          "name": "_violationType",
          "type": "uint8"
        }
      ],
      "name": "reportViolation",
      "outputs": [],
      "stateMutability": "nonpayable",
      "type": "function"
    },
    {
      "inputs": [
        {
          "internalType": "uint256",
          "name": "_id",
          "type": "uint256"
        }
      ],
      "name": "resolveViolation",
      "outputs": [],
      "stateMutability": "nonpayable",
      "type": "function"
    },
    {
      "inputs": [],
      "name": "violationCount",
      "outputs": [
        {
          "internalType": "uint256",
          "name": "",
          "type": "uint256"
        }
      ],
      "stateMutability": "view",
      "type": "function"
    },
    {
      "inputs": [
        {
          "internalType": "uint256",
          "name": "",
          "type": "uint256"
        }
      ],
      "name": "violations",
      "outputs": [
        {
          "internalType": "address",
          "name": "complainant",
          "type": "address"
        },
        {
          "internalType": "uint256",
          "name": "timestamp",
          "type": "uint256"
        },
        {
          "internalType": "string",
          "name": "location",
          "type": "string"
        },
        {
          "internalType": "enum complain1.ViolationType",
          "name": "violationType",
          "type": "uint8"
        },
        {
          "internalType": "bool",
          "name": "resolved",
          "type": "bool"
        }
      ],
      "stateMutability": "view",
      "type": "function"
    }
  ],
  "bytecode": "0x608060405234801561001057600080fd5b506000600181905550611379806100286000396000f3fe608060405234801561001057600080fd5b50600436106100625760003560e01c80630a86a39914610067578063523889411461009b57806359bdae44146100b9578063a20a2c00146100d5578063b995bb95146100f1578063f247599514610125575b600080fd5b610081600480360381019061007c91906108ab565b610143565b604051610092959493929190610a4a565b60405180910390f35b6100a3610326565b6040516100b09190610aa4565b60405180910390f35b6100d360048036038101906100ce9190610c2d565b61032c565b005b6100ef60048036038101906100ea91906108ab565b610518565b005b61010b600480360381019061010691906108ab565b6106c1565b60405161011c959493929190610a4a565b60405180910390f35b61012d6107b9565b60405161013a9190610d47565b60405180910390f35b6000806060600080600154861115610190576040517f08c379a000000000000000000000000000000000000000000000000000000000815260040161018790610db5565b60405180910390fd5b60008060008881526020019081526020016000206040518060a00160405290816000820160009054906101000a900473ffffffffffffffffffffffffffffffffffffffff1673ffffffffffffffffffffffffffffffffffffffff1673ffffffffffffffffffffffffffffffffffffffff1681526020016001820154815260200160028201805461021f90610e04565b80601f016020809104026020016040519081016040528092919081815260200182805461024b90610e04565b80156102985780601f1061026d57610100808354040283529160200191610298565b820191906000526020600020905b81548152906001019060200180831161027b57829003601f168201915b505050505081526020016003820160009054906101000a900460ff1660038111156102c6576102c56109b8565b5b60038111156102d8576102d76109b8565b5b81526020016003820160019054906101000a900460ff161515151581525050905080600001518160200151826040015183606001518460800151955095509550955095505091939590929450565b60015481565b60048160ff1610610372576040517f08c379a000000000000000000000000000000000000000000000000000000000815260040161036990610e81565b60405180910390fd5b6001600081548092919061038590610ed0565b91905055506040518060a001604052803373ffffffffffffffffffffffffffffffffffffffff1681526020014281526020018381526020018260ff1660038111156103d3576103d26109b8565b5b60038111156103e5576103e46109b8565b5b815260200160001515815250600080600154815260200190815260200160002060008201518160000160006101000a81548173ffffffffffffffffffffffffffffffffffffffff021916908373ffffffffffffffffffffffffffffffffffffffff16021790555060208201518160010155604082015181600201908161046b91906110c4565b5060608201518160030160006101000a81548160ff02191690836003811115610497576104966109b8565b5b021790555060808201518160030160016101000a81548160ff0219169083151502179055509050506001547f02bcf0e99be6facc6e48de3a8c76c277ed6c9a5603c71a92c82eda1ecd37de9d3342858560ff1660038111156104fc576104fb6109b8565b5b60405161050c9493929190611196565b60405180910390a25050565b60015481111561055d576040517f08c379a000000000000000000000000000000000000000000000000000000000815260040161055490610db5565b60405180910390fd5b3373ffffffffffffffffffffffffffffffffffffffff1660008083815260200190815260200160002060000160009054906101000a900473ffffffffffffffffffffffffffffffffffffffff1673ffffffffffffffffffffffffffffffffffffffff1614610600576040517f08c379a00000000000000000000000000000000000000000000000000000000081526004016105f790611254565b60405180910390fd5b60008082815260200190815260200160002060030160019054906101000a900460ff1615610663576040517f08c379a000000000000000000000000000000000000000000000000000000000815260040161065a906112c0565b60405180910390fd5b600160008083815260200190815260200160002060030160016101000a81548160ff021916908315150217905550807fd3c146e35d5f36e786effc7299debf0fa3c1f6785b0636ad5e18b935539ca4bb60405160405180910390a250565b60006020528060005260406000206000915090508060000160009054906101000a900473ffffffffffffffffffffffffffffffffffffffff169080600101549080600201805461071090610e04565b80601f016020809104026020016040519081016040528092919081815260200182805461073c90610e04565b80156107895780601f1061075e57610100808354040283529160200191610789565b820191906000526020600020905b81548152906001019060200180831161076c57829003601f168201915b5050505050908060030160009054906101000a900460ff16908060030160019054906101000a900460ff16905085565b6060600060015467ffffffffffffffff8111156107d9576107d8610ac9565b5b6040519080825280602002602001820160405280156108075781602001602082028036833780820191505090505b5090506000600190505b600154811161085957808260018361082991906112e0565b8151811061083a57610839611314565b5b602002602001018181525050808061085190610ed0565b915050610811565b508091505090565b6000604051905090565b600080fd5b600080fd5b6000819050919050565b61088881610875565b811461089357600080fd5b50565b6000813590506108a58161087f565b92915050565b6000602082840312156108c1576108c061086b565b5b60006108cf84828501610896565b91505092915050565b600073ffffffffffffffffffffffffffffffffffffffff82169050919050565b6000610903826108d8565b9050919050565b610913816108f8565b82525050565b61092281610875565b82525050565b600081519050919050565b600082825260208201905092915050565b60005b83811015610962578082015181840152602081019050610947565b60008484015250505050565b6000601f19601f8301169050919050565b600061098a82610928565b6109948185610933565b93506109a4818560208601610944565b6109ad8161096e565b840191505092915050565b7f4e487b7100000000000000000000000000000000000000000000000000000000600052602160045260246000fd5b600481106109f8576109f76109b8565b5b50565b6000819050610a09826109e7565b919050565b6000610a19826109fb565b9050919050565b610a2981610a0e565b82525050565b60008115159050919050565b610a4481610a2f565b82525050565b600060a082019050610a5f600083018861090a565b610a6c6020830187610919565b8181036040830152610a7e818661097f565b9050610a8d6060830185610a20565b610a9a6080830184610a3b565b9695505050505050565b6000602082019050610ab96000830184610919565b92915050565b600080fd5b600080fd5b7f4e487b7100000000000000000000000000000000000000000000000000000000600052604160045260246000fd5b610b018261096e565b810181811067ffffffffffffffff82111715610b2057610b1f610ac9565b5b80604052505050565b6000610b33610861565b9050610b3f8282610af8565b919050565b600067ffffffffffffffff821115610b5f57610b5e610ac9565b5b610b688261096e565b9050602081019050919050565b82818337600083830152505050565b6000610b97610b9284610b44565b610b29565b905082815260208101848484011115610bb357610bb2610ac4565b5b610bbe848285610b75565b509392505050565b600082601f830112610bdb57610bda610abf565b5b8135610beb848260208601610b84565b91505092915050565b600060ff82169050919050565b610c0a81610bf4565b8114610c1557600080fd5b50565b600081359050610c2781610c01565b92915050565b60008060408385031215610c4457610c4361086b565b5b600083013567ffffffffffffffff811115610c6257610c61610870565b5b610c6e85828601610bc6565b9250506020610c7f85828601610c18565b9150509250929050565b600081519050919050565b600082825260208201905092915050565b6000819050602082019050919050565b610cbe81610875565b82525050565b6000610cd08383610cb5565b60208301905092915050565b6000602082019050919050565b6000610cf482610c89565b610cfe8185610c94565b9350610d0983610ca5565b8060005b83811015610d3a578151610d218882610cc4565b9750610d2c83610cdc565b925050600181019050610d0d565b5085935050505092915050565b60006020820190508181036000830152610d618184610ce9565b905092915050565b7f56696f6c6174696f6e20494420646f6573206e6f742065786973740000000000600082015250565b6000610d9f601b83610933565b9150610daa82610d69565b602082019050919050565b60006020820190508181036000830152610dce81610d92565b9050919050565b7f4e487b7100000000000000000000000000000000000000000000000000000000600052602260045260246000fd5b60006002820490506001821680610e1c57607f821691505b602082108103610e2f57610e2e610dd5565b5b50919050565b7f496e76616c69642076696f6c6174696f6e207479706500000000000000000000600082015250565b6000610e6b601683610933565b9150610e7682610e35565b602082019050919050565b60006020820190508181036000830152610e9a81610e5e565b9050919050565b7f4e487b7100000000000000000000000000000000000000000000000000000000600052601160045260246000fd5b6000610edb82610875565b91507fffffffffffffffffffffffffffffffffffffffffffffffffffffffffffffffff8203610f0d57610f0c610ea1565b5b600182019050919050565b60008190508160005260206000209050919050565b60006020601f8301049050919050565b600082821b905092915050565b600060088302610f7a7fffffffffffffffffffffffffffffffffffffffffffffffffffffffffffffffff82610f3d565b610f848683610f3d565b95508019841693508086168417925050509392505050565b6000819050919050565b6000610fc1610fbc610fb784610875565b610f9c565b610875565b9050919050565b6000819050919050565b610fdb83610fa6565b610fef610fe782610fc8565b848454610f4a565b825550505050565b600090565b611004610ff7565b61100f818484610fd2565b505050565b5b8181101561103357611028600082610ffc565b600181019050611015565b5050565b601f8211156110785761104981610f18565b61105284610f2d565b81016020851015611061578190505b61107561106d85610f2d565b830182611014565b50505b505050565b600082821c905092915050565b600061109b6000198460080261107d565b1980831691505092915050565b60006110b4838361108a565b9150826002028217905092915050565b6110cd82610928565b67ffffffffffffffff8111156110e6576110e5610ac9565b5b6110f08254610e04565b6110fb828285611037565b600060209050601f83116001811461112e576000841561111c578287015190505b61112685826110a8565b86555061118e565b601f19841661113c86610f18565b60005b828110156111645784890151825560018201915060208501945060208101905061113f565b86831015611181578489015161117d601f89168261108a565b8355505b6001600288020188555050505b505050505050565b60006080820190506111ab600083018761090a565b6111b86020830186610919565b81810360408301526111ca818561097f565b90506111d96060830184610a20565b95945050505050565b7f4f6e6c792074686520636f6d706c61696e616e742063616e207265736f6c766560008201527f207468652076696f6c6174696f6e000000000000000000000000000000000000602082015250565b600061123e602e83610933565b9150611249826111e2565b604082019050919050565b6000602082019050818103600083015261126d81611231565b9050919050565b7f56696f6c6174696f6e20697320616c7265616479207265736f6c766564000000600082015250565b60006112aa601d83610933565b91506112b582611274565b602082019050919050565b600060208201905081810360008301526112d98161129d565b9050919050565b60006112eb82610875565b91506112f683610875565b925082820390508181111561130e5761130d610ea1565b5b92915050565b7f4e487b7100000000000000000000000000000000000000000000000000000000600052603260045260246000fdfea2646970667358221220c54af6b3cb2a5ac3889a8ca1b37b0bb454c625e9ca76109898ac2e3f1665b1ef64736f6c63430008110033",
  "linkReferences": {},
  "deployedLinkReferences": {}
}