{
  "_format": "hh-sol-artifact-1",
  "contractName": "ram",
  "sourceName": "contracts/ram.sol",
  "abi": [
    {
      "inputs": [
        {
          "internalType": "bytes32[]",
          "name": "_candidateList",
          "type": "bytes32[]"
        }
      ],
      "stateMutability": "nonpayable",
      "type": "constructor"
    },
    {
      "anonymous": false,
      "inputs": [
        {
          "indexed": true,
          "internalType": "address",
          "name": "voter",
          "type": "address"
        },
        {
          "indexed": true,
          "internalType": "bytes32",
          "name": "candidate",
          "type": "bytes32"
        }
      ],
      "name": "VoteCast",
      "type": "event"
    },
    {
      "inputs": [
        {
          "internalType": "uint256",
          "name": "",
          "type": "uint256"
        }
      ],
      "name": "candidateList",
      "outputs": [
        {
          "internalType": "bytes32",
          "name": "",
          "type": "bytes32"
        }
      ],
      "stateMutability": "view",
      "type": "function"
    },
    {
      "inputs": [],
      "name": "getCandidates",
      "outputs": [
        {
          "internalType": "bytes32[]",
          "name": "",
          "type": "bytes32[]"
        }
      ],
      "stateMutability": "view",
      "type": "function"
    },
    {
      "inputs": [],
      "name": "getCandidatesWithVoteCount",
      "outputs": [
        {
          "internalType": "bytes32[]",
          "name": "",
          "type": "bytes32[]"
        },
        {
          "internalType": "uint256[]",
          "name": "",
          "type": "uint256[]"
        }
      ],
      "stateMutability": "view",
      "type": "function"
    },
    {
      "inputs": [
        {
          "internalType": "address",
          "name": "",
          "type": "address"
        }
      ],
      "name": "hasVoted",
      "outputs": [
        {
          "internalType": "bool",
          "name": "",
          "type": "bool"
        }
      ],
      "stateMutability": "view",
      "type": "function"
    },
    {
      "inputs": [
        {
          "internalType": "bytes32",
          "name": "_candidate",
          "type": "bytes32"
        }
      ],
      "name": "isValidCandidate",
      "outputs": [
        {
          "internalType": "bool",
          "name": "",
          "type": "bool"
        }
      ],
      "stateMutability": "view",
      "type": "function"
    },
    {
      "inputs": [
        {
          "internalType": "bytes32",
          "name": "_candidate",
          "type": "bytes32"
        }
      ],
      "name": "vote",
      "outputs": [],
      "stateMutability": "nonpayable",
      "type": "function"
    },
    {
      "inputs": [
        {
          "internalType": "bytes32",
          "name": "",
          "type": "bytes32"
        }
      ],
      "name": "votesReceived",
      "outputs": [
        {
          "internalType": "uint256",
          "name": "",
          "type": "uint256"
        }
      ],
      "stateMutability": "view",
      "type": "function"
    }
  ],
  "bytecode": "0x60806040523480156200001157600080fd5b5060405162000e4438038062000e4483398181016040528101906200003791906200028c565b80600290805190602001906200004f92919062000057565b5050620002dd565b82805482825590600052602060002090810192821562000096579160200282015b828111156200009557825182559160200191906001019062000078565b5b509050620000a59190620000a9565b5090565b5b80821115620000c4576000816000905550600101620000aa565b5090565b6000604051905090565b600080fd5b600080fd5b600080fd5b6000601f19601f8301169050919050565b7f4e487b7100000000000000000000000000000000000000000000000000000000600052604160045260246000fd5b6200012c82620000e1565b810181811067ffffffffffffffff821117156200014e576200014d620000f2565b5b80604052505050565b600062000163620000c8565b905062000171828262000121565b919050565b600067ffffffffffffffff821115620001945762000193620000f2565b5b602082029050602081019050919050565b600080fd5b6000819050919050565b620001bf81620001aa565b8114620001cb57600080fd5b50565b600081519050620001df81620001b4565b92915050565b6000620001fc620001f68462000176565b62000157565b90508083825260208201905060208402830185811115620002225762000221620001a5565b5b835b818110156200024f57806200023a8882620001ce565b84526020840193505060208101905062000224565b5050509392505050565b600082601f830112620002715762000270620000dc565b5b815162000283848260208601620001e5565b91505092915050565b600060208284031215620002a557620002a4620000d2565b5b600082015167ffffffffffffffff811115620002c657620002c5620000d7565b5b620002d48482850162000259565b91505092915050565b610b5780620002ed6000396000f3fe608060405234801561001057600080fd5b506004361061007d5760003560e01c80638c1d9f301161005b5780638c1d9f3014610100578063a69beaba14610130578063b13c744b1461014c578063fc1da1ec1461017c5761007d565b806306a49fce1461008257806309eef43e146100a05780637021939f146100d0575b600080fd5b61008a61019b565b6040516100979190610676565b60405180910390f35b6100ba60048036038101906100b591906106fb565b6101f3565b6040516100c79190610743565b60405180910390f35b6100ea60048036038101906100e5919061078a565b610213565b6040516100f791906107d0565b60405180910390f35b61011a6004803603810190610115919061078a565b61022b565b6040516101279190610743565b60405180910390f35b61014a6004803603810190610145919061078a565b61028d565b005b61016660048036038101906101619190610817565b610428565b6040516101739190610853565b60405180910390f35b61018461044c565b60405161019292919061092c565b60405180910390f35b606060028054806020026020016040519081016040528092919081815260200182805480156101e957602002820191906000526020600020905b8154815260200190600101908083116101d5575b5050505050905090565b60006020528060005260406000206000915054906101000a900460ff1681565b60016020528060005260406000206000915090505481565b600080600090505b60028054905081101561028257826002828154811061025557610254610963565b5b90600052602060002001540361026f576001915050610288565b808061027a906109c1565b915050610233565b50600090505b919050565b6000803373ffffffffffffffffffffffffffffffffffffffff1673ffffffffffffffffffffffffffffffffffffffff16815260200190815260200160002060009054906101000a900460ff1615610319576040517f08c379a000000000000000000000000000000000000000000000000000000000815260040161031090610a66565b60405180910390fd5b6103228161022b565b610361576040517f08c379a000000000000000000000000000000000000000000000000000000000815260040161035890610ad2565b60405180910390fd5b600160008281526020019081526020016000206000815480929190610385906109c1565b919050555060016000803373ffffffffffffffffffffffffffffffffffffffff1673ffffffffffffffffffffffffffffffffffffffff16815260200190815260200160002060006101000a81548160ff021916908315150217905550803373ffffffffffffffffffffffffffffffffffffffff167fa55a6802e1be8e8b837435e17cec23b2e9cd61773bb7b073eb7e1c176cdf3d3260405160405180910390a350565b6002818154811061043857600080fd5b906000526020600020016000915090505481565b6060806000600280549050905060008167ffffffffffffffff81111561047557610474610af2565b5b6040519080825280602002602001820160405280156104a35781602001602082028036833780820191505090505b50905060008267ffffffffffffffff8111156104c2576104c1610af2565b5b6040519080825280602002602001820160405280156104f05781602001602082028036833780820191505090505b50905060005b838110156105a0576002818154811061051257610511610963565b5b90600052602060002001548382815181106105305761052f610963565b5b602002602001018181525050600160006002838154811061055457610553610963565b5b906000526020600020015481526020019081526020016000205482828151811061058157610580610963565b5b6020026020010181815250508080610598906109c1565b9150506104f6565b508181945094505050509091565b600081519050919050565b600082825260208201905092915050565b6000819050602082019050919050565b6000819050919050565b6105ed816105da565b82525050565b60006105ff83836105e4565b60208301905092915050565b6000602082019050919050565b6000610623826105ae565b61062d81856105b9565b9350610638836105ca565b8060005b8381101561066957815161065088826105f3565b975061065b8361060b565b92505060018101905061063c565b5085935050505092915050565b600060208201905081810360008301526106908184610618565b905092915050565b600080fd5b600073ffffffffffffffffffffffffffffffffffffffff82169050919050565b60006106c88261069d565b9050919050565b6106d8816106bd565b81146106e357600080fd5b50565b6000813590506106f5816106cf565b92915050565b60006020828403121561071157610710610698565b5b600061071f848285016106e6565b91505092915050565b60008115159050919050565b61073d81610728565b82525050565b60006020820190506107586000830184610734565b92915050565b610767816105da565b811461077257600080fd5b50565b6000813590506107848161075e565b92915050565b6000602082840312156107a05761079f610698565b5b60006107ae84828501610775565b91505092915050565b6000819050919050565b6107ca816107b7565b82525050565b60006020820190506107e560008301846107c1565b92915050565b6107f4816107b7565b81146107ff57600080fd5b50565b600081359050610811816107eb565b92915050565b60006020828403121561082d5761082c610698565b5b600061083b84828501610802565b91505092915050565b61084d816105da565b82525050565b60006020820190506108686000830184610844565b92915050565b600081519050919050565b600082825260208201905092915050565b6000819050602082019050919050565b6108a3816107b7565b82525050565b60006108b5838361089a565b60208301905092915050565b6000602082019050919050565b60006108d98261086e565b6108e38185610879565b93506108ee8361088a565b8060005b8381101561091f57815161090688826108a9565b9750610911836108c1565b9250506001810190506108f2565b5085935050505092915050565b600060408201905081810360008301526109468185610618565b9050818103602083015261095a81846108ce565b90509392505050565b7f4e487b7100000000000000000000000000000000000000000000000000000000600052603260045260246000fd5b7f4e487b7100000000000000000000000000000000000000000000000000000000600052601160045260246000fd5b60006109cc826107b7565b91507fffffffffffffffffffffffffffffffffffffffffffffffffffffffffffffffff82036109fe576109fd610992565b5b600182019050919050565b600082825260208201905092915050565b7f596f75206861766520616c726561647920766f7465642e000000000000000000600082015250565b6000610a50601783610a09565b9150610a5b82610a1a565b602082019050919050565b60006020820190508181036000830152610a7f81610a43565b9050919050565b7f496e76616c69642063616e6469646174652e0000000000000000000000000000600082015250565b6000610abc601283610a09565b9150610ac782610a86565b602082019050919050565b60006020820190508181036000830152610aeb81610aaf565b9050919050565b7f4e487b7100000000000000000000000000000000000000000000000000000000600052604160045260246000fdfea264697066735822122094de69f1b3a5b6a1ee12d0655665c2e17361613b28f827e4e59e8d8c4ee285da64736f6c63430008110033",
  "linkReferences": {},
  "deployedLinkReferences": {}
}